:02000002D0002C
:1040000000400D00D4800D00000006000C000501EA
:084010000401DB0700000000C1
:0440180080720D00A5
:10401C0009480A49884208B505D0094A824202D0AB
:10402C00121A03F0D3F80748074A0021121A03F0BA
:10403C00DBF8014808BD00BF34E00320347C0D00E0
:10404C00ACE40320B0E40320F4E7032070B5074E82
:10405C00074C01F0EFFCA41BA4080025A54200D1DD
:10406C0070BD56F8043B98470135F7E70C7C0D0002
:10407C00307C0D0000F05CB808B500F0F1F8BDE83C
:10408C00084001F099BC01F0D9B901F0D7B901F0A1
:10409C00DDB9000008B5034A00210C2001F032F90B
:1040AC00FEE700BF11500D000078B0FA80F0400917
:1040BC0070470123037070477047704738B58469A7
:1040CC000A4B036005467CB16368013B63605BB9D6
:1040DC00236820469B689847A368013BA3601BB9E3
:1040EC0023682046DB689847284638BD687A0D005F
:1040FC0010B50446006808B101F0A8F9204610BDBF
:10410C000EB403B503AB002153F8042B019301F05B
:10411C00AEFB02B05DF804EB03B0704710B504467B
:10412C00FFF7CCFF20461C2102F009FB204610BDF6
:10413C0070B501F095FD4FF4165101F085FD01218C
:10414C00072002F069FA3B4C3B4E3C4D02F0CAFA98
:10415C0001F06CFE0023236002F0C4FA216801F028
:10416C006FFE02F0BFFA01F072FE60B901F078FD4B
:10417C00236831461A46FFF7C3FF2B680120013331
:10418C002B6001F0D7FB236801337F2B2360E3DD29
:10419C0001F066FD294B2A491A68FFF7B1FF3C2252
:1041AC000221284800F0A8FB264800F035FB4FF40C
:1041BC00FA6001F0BFFB234800F0B6FA4FF4FA6046
:1041CC0001F0B8FBB9EE080A01F08AFB01F01EF908
:1041DC0010B1002001F022F9642001F0ABFB0121A9
:1041EC00122002F019FA184C184D01F039FD18493B
:1041FC00FFF786FF002360681A46194601F0B6F8EF
:10420C0000226068114601F0B9F840B101F028FDB8
:10421C002946FFF775FF642001F08CFBF0E701F0F5
:10422C001FFD0C49FFF76CFFBDE870400A490B48B5
:10423C0000F082BE5CE5032094720D0034E503208F
:10424C00B3720D0038E50320C8E70320E8720D00B7
:10425C00CF720D00EA720D00FCE4032060E5032030
:10426C000121072002F0E9B910B52421044602F01F
:10427C0066FA204610BD10B5D421044602F05FFA50
:10428C00204610BDF7B52E4F2E4D2F4C2F4E3946D4
:10429C00284601F066FA28462D4D2246314602F09A
:1042AC0049FA3946284601F05CFA2846294D22463F
:1042BC00314602F03FFA284E0421284600F01EFA3F
:1042CC0022462649284602F035FA3046244D02F0A3
:1042DC006BF822462349304602F02CFA224B00930D
:1042EC002249234B40F25B72284600F009FE214B19
:1042FC002B60C5F8D06022461F49284602F01AFAF6
:10430C0029461E4A1E48002300F036FE29461D4A47
:10431C001D4D1E48002300F02AFE00232B60AB80AD
:10432C00AB71A3F58033AB60022000F0FBFF1849A2
:10433C002246284603B0BDE8F04002F0FBB900BFAE
:10434C00FD720D00B4E40320B0E40320D9560D0037
:10435C00ECE4032038E50320D0E40320C5400D0035
:10436C0060E50320C9400D0019730D0009730D00A1
:10437C00FE720D00EC780D00C7400D003A730D0075
:10438C00FCE4032057730D00C4E4032034E603203F
:10439C00FD400D00F0B5457EBDF81440022D67D0F0
:1043AC00032D00F09780012D6AD10589D2432A4450
:1043BC0012B2002A5BDBB0F90850954257DD002998
:1043CC00BEBF5B181BB20021B0F90A00CD188542A4
:1043DC00C4BF431A1BB2002B49DDC1F3C400DFF884
:1043EC001CC102EBC01211F00701DBB20CEB020096
:1043FC001AD0C1F108053F4EEDB2AB42775D3FBF1D
:10440C00A5EB030EFF2646FA0EF637401CF80260A9
:10441C00012C0CBF3E43BE43AB420CF8026026D3CA
:10442C0008390B44DBB28030072B17D9012C0CBF99
:10443C00FF25002500F180011A46083AD2B2072A5E
:10444C0001F8805C01F18001F7D8A3F10802C2F3F6
:10445C00C402013200EBC21003F007033BB1264A41
:10446C00D25C0378012C0CBF134393430370F0BD53
:10447C004589D2432A44CD180189491B12B209B28D
:10448C00002AF4DBB0F90A509542F0DD0029BEBFDA
:10449C005B181BB20021B0F90870CE18BE42C4BF25
:1044AC006B1A1BB2002BE2DDD010802510FB05111E
:1044BC001248084402F0070101228A40012CD2B2B2
:1044CC0003440CD18342D2D010F8014B144300F8B2
:1044DC00014CF7E7CD184189491B09B269E7D24372
:1044EC00D2B28342C3D010F8014B144000F8014CF7
:1044FC00F7E700BF3CE0032034E0032044E0032056
:10450C00F0B5457EBDF81440022D34D0032D00F0DB
:10451C009980012D37D1D5180289521B12B200296E
:10452C00C0F28F80B0F90A508D4240F38A80002A85
:10453C00BEBF9B181BB20022B0F90870D618BE4241
:10454C00C4BFAB1A1BB2002B7BDDC810802510FB3F
:10455C0005224448104401F0070201219140012C2E
:10456C00C9B2034473D198426BD010F8014B0C4381
:10457C0000F8014CF7E70589C9432944D51842894D
:10458C00521B09B212B200295BDBB0F908508D4204
:10459C0057DD002ABEBF9B181BB20022B0F90A00DF
:1045AC00D5188542C4BF831A1BB2002B49DDC2F358
:1045BC00C400DFF8B0C001EBC01112F00702DBB28F
:1045CC000CEB01001AD0C2F10805274EEDB2AB423C
:1045DC00775D3FBFA5EB030EFF2646FA0EF637407C
:1045EC001CF80160012C0CBF3E43BE43AB420CF8DF
:1045FC00016026D3083A1344DBB28030072B17D95D
:10460C00012C0CBFFF25002500F180011A46083A49
:10461C00D2B2072A01F8805C01F18001F7D8A3F12E
:10462C000802C2F3C402013200EBC21003F007030C
:10463C003BB10E4AD25C0378012C0CBF134393435D
:10464C000370F0BD4589C943294409B267E7C943E2
:10465C00C9B29842F5D010F8014B0C4000F8014C4F
:10466C00F7E700BF44E003203CE0032034E00320E4
:10467C00F8B50D1E064614461F462DDB00F0BCFB9C
:10468C00A84229DD002C27DB304600F0B8FBA04205
:10469C0022DD304600F0AEFB02281ED0032825D0C8
:1046AC00012804D13289E44322442C4615B2002C53
:1046BC002146B8BFE11DC910802311FB03550E49DB
:1046CC00012204F007044B5702FA04F464B2974237
:1046DC000CBF2343A3434B55F8BD31897289013973
:1046EC00E4434D1B14442DB224B2E0E77389013B23
:1046FC005B1B25461CB2DAE744E0032038B54022A8
:10470C0004460D46802100F0A7FA064B2360FF23D8
:10471C0084F8213063774FF6FF73E38384F82050DD
:10472C00204638BD80730D0002484FF48062002192
:10473C0002F05ABD44E0032013B50B4C2178BFF3B3
:10474C005B8F11F001010BD120460191FFF7ACFCFE
:10475C00019928B1054800F0E5FE2046FFF7A9FCB9
:10476C00024802B010BD00BF40E6032044E603201F
:10477C0007B590F8223043B10191FFF7DDFF0199A5
:10478C0003B05DF804EB00F07DBF0B46817F407FEA
:10479C00012203B05DF804EB01F068BF38B590F965
:1047AC001D30013304460D461DD090F92100012126
:1047BC0080B201F042FF94F91F00002180B201F099
:1047CC003CFF94F92100002180B201F036FF29460C
:1047DC002046FFF7CDFF94F921000121BDE83840B8
:1047EC0080B201F02ABF01F07DFF94F91B1001F09B
:1047FC0027FB01F077FF036800219B68984701F0C5
:10480C0071FF036829469B68984701F06BFFBDE870
:10481C00384001F01CBB0000F8B521210446FFF71D
:10482C00BDFF00212046FFF7B9FF7F212046FFF78F
:10483C00B5FF22212046FFF7B1FF00212046FFF7EC
:10484C00ADFF07212046FFF7A9FF94F91D30294F32
:10485C0001332AD094F92100012180B201F0EDFE40
:10486C0094F91F00012180B201F0E7FE94F92100B8
:10487C00002180B201F0E1FE012000F0C3FB4FF4F7
:10488C008065013D17F8011B2046ADB2FFF770FFA4
:10489C00002DF6D1012000F0B5FB94F92100012187
:1048AC00BDE8F84080B201F0C8BE102601F01AFF36
:1048BC0094F91B1001F0C4FA01F014FF0368A6F17F
:1048CC0010059B684021ADB2984701F00BFF0368BF
:1048DC00795D9B680135ADB29847AE42F5D101F0D8
:1048EC0001FF01F0B4FA06F110039EB2B6F5826F27
:1048FC00DCD1F8BD44E0032038B590F91D300177C8
:10490C00013304460D46C27600F0C98090F91F00B1
:10491C00012180B201F080FE94F92100012180B2C6
:10492C0001F07AFE94F82230002B00F0A68094F966
:10493C002100012180B201F080FEFFF7FDFE012174
:10494C0000F00BFEFFF7F8FE102100F075FEFFF7EC
:10495C00F3FE002100F014FEFFF7EEFE00F0ECFD7C
:10496C0094F92000012180B201F056FE94F9200048
:10497C00012180B201F061FE012000F0DBFF94F90F
:10498C002000002180B201F058FE0A2000F0D2FF76
:10499C0094F92000012180B201F04FFE2046AE2197
:1049AC00FFF7FCFE2046D521FFF7F8FE20468021BC
:1049BC00FFF7F4FE2046A821FFF7F0FE20463F212A
:1049CC00FFF7ECFE2046D321FFF7E8FE204600213E
:1049DC00FFF7E4FE20464021FFF7E0FE8D21204644
:1049EC00FFF7DCFE012D0CBF102114212046FFF730
:1049FC00D5FE20462021FFF7D1FE20460021FFF7EF
:104A0C00CDFE2046A121FFF7C9FE2046C821FFF7A5
:104A1C00C5FE2046DA21FFF7C1FE20461221FFF722
:104A2C00BDFE81212046FFF7B9FE012D0CBF9F2151
:104A3C00CF212046FFF7B2FED9212046FFF7AEFE6C
:104A4C00012D0CBF2221F1212046FFF7A7FE2046A5
:104A5C00DB21FFF7A3FE20464021FFF79FFE2046F7
:104A6C00A421FFF79BFE2046A621FFF797FE2046C8
:104A7C00AF21BDE83840FFF791BE94F91D0001212C
:104A8C0080B201F0C9FD94F91E00012180B201F041
:104A9C00C3FD94F82230002B3FF462AF47E701F0DE
:104AAC0021FE01F0C3F95BE72DE9F04F85B01F46FD
:104ABC00BDF93880BDF83C30A8EB0209A7EB010A20
:104ACC00B9F1000FB8BFC9F10009BAF1000FB8BFB6
:104ADC00CAF1000AD14583460C46154604DD3A4618
:104AEC002C4647460D469046BC4205DD2A464546B7
:104AFC00904622463C4617463E1BB2B20092A8EBAB
:104B0C000502002AB8BF52420192C6F3C03202FA23
:104B1C0086F64545B4BF01224FF0FF327610029263
:104B2C00BC421CDCDBF800200393D145D2F810808A
:104B3C00C7BF294622462A4621465846C047019AF5
:104B4C00039BB61AB1B236B2002E05DA029A15449E
:104B5C00009A56182DB236B2013424B2E0E705B0F3
:104B6C00BDE8F08F2DE9F347BDF82C800768BDF93F
:104B7C002890CDF800800446FF6916468A461D46EB
:104B8C00B8472368CDF8008009F1FF323244DF6961
:104B9C0051462B46204612B2B8472368CDF8008008
:104BAC009F6932464B4651462046B8476B1E03EB75
:104BBC000A012368CDF828809D6932464B4609B21C
:104BCC002046AC4602B0BDE8F047604737B5013B24
:104BDC0013440468BDF8185001951BB20093646926
:104BEC000B46A04703B030BD37B5BDF8185004686C
:104BFC00CDE90025013B0B4464691BB2A04703B00F
:104C0C0030BD2DE9F347BDF92890BDF82C80054641
:104C1C0092460C46CE18B4420BDA2B68CDF80080C5
:104C2C009F6921464B46524628460134B84724B268
:104C3C00F1E702B0BDE8F08713B502680191B0F955
:104C4C000E100091546AB0F90C3000221146A047A6
:104C5C0002B010BD7047000030B54281C2814FF0E8
:104C6C00FF320024054D4261012244600560018140
:104C7C00818104610283827630BD00BFB4780D005F
:104C8C002DE9F04F2DED028B8BB006460391BDF84C
:104C9C0058100591BDF85C100691B0F90C100398F2
:104CAC009DF86050814251DDB6F90E1091424DDDF8
:104CBC00062111FB0504002C48DD02EBC504002C79
:104CCC0044DD03EB8303099393B20791002404930F
:104CDC00052C1CBF2D4B099A049F16BF1B190023D2
:104CEC009B5C0293039AABB2089304FB05F313FA93
:104CFC0082F31BB204EB020A08EE103A4FF00008E4
:104D0C000FFA85F90FFA8AFA029BDB072FD5012DD2
:104D1C00336820D1049AD3F810B0059B424412B2E8
:104D2C0051463046D847029B5B080293089B08F11A
:104D3C0001081F44B8F1080FBFB2E5D1079B013B36
:104D4C00013413F0FF0364B20793C1D10BB0BDEC77
:104D5C00028BBDE8F08F059ACDE9009218EE101A7F
:104D6C00D3F824B03AB24B463046D847DBE7DDE9FE
:104D7C0005239342D7D0012D336805D1049AD3F87B
:104D8C0010B0069B4244CAE7069AE5E7B0730D00E3
:104D9C0030B50A2985B0044607D1027E638A03EB3D
:104DAC00C20363820023238221E00D291FD0037EDE
:104DBC000293C38A0193838A0093B0F912200B46A5
:104DCC00B0F91010FFF75CFF217E238A01EB410044
:104DDC0003EB4003A07E1BB20A46238238B1B4F920
:104DEC000C006FF0050505FB01018B42D6DC0120A0
:104DFC0005B030BD407E7047B0F90C007047B0F97B
:104E0C000E00704708B5D0F8D00003681B6B9847AC
:104E1C00003818BF012008BDF8B506460F461446E9
:104E2C00C4B1D6F8D00003681B6B984708B90020B2
:104E3C00F8BDD6F8D000FA2C03682546A8BFFA2591
:104E4C00DB682A463946984783B2E41A9D42A4B2DD
:104E5C00E6D0ECE70120EBE72DE9F843064688465F
:104E6C0091461F461D460024D6F8D00003681B6BE4
:104E7C009847D0B1002D18DBD6F8D00003681B6919
:104E8C00984760B1D6F8D00003685B69984708F87A
:104E9C0004000134A4B24C4507D03D46ECE70A3D72
:104EAC000A202DB200F046FDDEE72046BDE8F8836F
:104EBC0070B5044600F1220596220021284602F026
:104ECC0093F96168284602F0C5F9D4F8D00022891C
:104EDC00036829465E6A0023B047003818BF0120DA
:104EEC0070BD10B50446D0F8D00003681B6B984712
:104EFC0020B1D4F8D0000368DB6A9847012010BDBC
:104F0C0030B502810A4A0B4DC0E90323039B436170
:104F1C000023C0E90051C0E92F33C0E93133C0E9A7
:104F2C000633C0F8CC300384A0F8B83030BD00BFD5
:104F3C00FD720D0010790D0000F1BC0230B5134666
:104F4C0000F1D00453F8045B8D4209D0A342F9D18F
:104F5C00002352F8044B2CB900EB8300C0F8BC10B2
:104F6C00012003E00133052BF3D1002030BD10B537
:104F7C00C0E90012037210BD10B503710023C0E923
:104F8C000833C0E90A33416302604383C36103639E
:104F9C0010BD000008B5024B1B689B68019308BD4F
:104FAC006802030008B5024B1B68DB68019308BD5F
:104FBC006802030008B5024B1B689B68019308BD8F
:104FCC002C02030008B5024B1B68DB68019308BD7B
:104FDC002C02030008B5024B1B681B69019308BD2A
:104FEC002C02030008B5024B1B685B69019308BDDA
:104FFC006C02030008B5024B1B685B68019308BD8B
:10500C001802030008B5024B1B68DB68019308BD4E
:10501C001802030008B5024B1B685B69019308BDBD
:10502C001802030008B5024B1B685B6C019308BDAA
:10503C004802030008B5024B1B689B6C019308BD2A
:10504C004802030008B5024B1B685B69019308BD5D
:10505C006402030008B5024B1B681B6A019308BD70
:10506C006402030008B5024B1B689B6A019308BDE0
:10507C006402030008B5024B1B681B68019308BD52
:10508C003C02030008B5024B1B68DB68019308BDAA
:10509C003C02030008B5024B1B681B69019308BD59
:1050AC003C02030008B5024B1B685B69019308BD09
:1050BC003C02030008B5024B1B689B69019308BDB9
:1050CC003C02030008B5024B1B68DB69019308BD69
:1050DC003C02030008B5024B1B681B6A019308BD18
:1050EC003C02030008B5024B1B689B6A019308BD88
:1050FC003C02030008B5024B1B68DB68019308BD3A
:10510C002802030008B5024B1B689B69019308BD7C
:10511C002802030008B5024B1B68DB69019308BD2C
:10512C002802030008B5024B1B681B6A019308BDDB
:10513C002802030008B5024B1B685B6A019308BD8B
:10514C002802030008B5024B1B689B6A019308BD3B
:10515C002802030008B5024B1B68DB6A019308BDEB
:10516C002802030008B5024B1B681B6B019308BD9A
:10517C002802030008B5024B1B685B6B019308BD4A
:10518C002802030008B5024B1B681B6C019308BD79
:10519C002802030008B5024B1B689B69019308BDEC
:1051AC003802030008B5024B1B68DB69019308BD8C
:1051BC003802030008B5024B1B681B6A019308BD3B
:1051CC003802030008B5024B1B689B6A019308BDAB
:1051DC003802030008B5024B1B681B6B019308BD1A
:1051EC003802030008B5024B1B689B6B019308BD8A
:1051FC003802030008B5024B1B681B68019308BDFD
:10520C003002030008B5024B1B689B68019308BD74
:10521C003002030008B5024B1B68DB68019308BD24
:10522C003002030008B5024B1B681B69019308BDD3
:10523C003002030008B5024B1B685B69019308BD83
:10524C003002030008B5024B1B68DB69019308BDF3
:10525C003002030008B5024B1B681B6A019308BDA2
:10526C003002030008B5024B1B685B6A019308BD52
:10527C003002030008B5024B1B681B6C019308BD80
:10528C003002030008B5024B1B685B6C019308BD30
:10529C003002030008B5024B1B681B68019308BD64
:1052AC004C02030008B5024B1B685B68019308BDF8
:1052BC004C02030008B5024B1B681B69019308BD27
:1052CC004C02030008B5024B1B685B69019308BDD7
:1052DC004C02030008B5024B1B689B69019308BD87
:1052EC004C02030008B5024B1B68DB69019308BD37
:1052FC004C02030008B5024B1B681B6A019308BDE6
:10530C004C02030008B5024B1B685B6B019308BD94
:10531C006002030008B5024B1B681B6D019308BDAE
:10532C006002030008B5024B1B685B68019308BD63
:10533C002002030008B5024B1B685B69019308BD92
:10534C002002030008B5034B1B68D3F88830019387
:10535C0008BD00002002030008B5034B1B68D3F8FE
:10536C009430019308BD00002002030008B5024BE5
:10537C001B685B68019308BD4002030008B5024B33
:10538C001B689B68019308BD4002030008B5024BE3
:10539C001B68DB68019308BD4002030008B5024B93
:1053AC001B681B69019308BD4002030008B5024B42
:1053BC001B685B69019308BD4002030008B5024BF2
:1053CC001B689B69019308BD4002030008B5024BA2
:1053DC001B68DB69019308BD4002030008B5024B52
:1053EC001B681B6A019308BD4002030008B5024B01
:1053FC001B681B6B019308BD4002030008B5024BF0
:10540C001B685B6B019308BD4002030008B5024B9F
:10541C001B685B69019308BD4402030008B5024B8D
:10542C001B68DB6A019308BD4402030008B5024BFC
:10543C001B68DB6B019308BD4402030008B5024BEB
:10544C001B681B68019308BD1C02030008B5024BC6
:10545C001B685B68019308BD1C02030008B5024B76
:10546C001B689B68019308BD1C02030008B5024B26
:10547C001B685B6A019308BD1C02030008B5024B54
:10548C001B68DB6B019308BD1C02030008B5024BC3
:10549C001B685B6C019308BD1C0203000022406872
:1054AC001146FFF79BBF002240681146FFF7A6BFCD
:1054BC0040680022FFF79ABF4068002281F001018A
:1054CC00FFF784BF002340681A461946FFF776BFE2
:1054DC00002340681A461946FFF768BF002240684F
:1054EC001146FFF75BBF002240681146FFF746BF2D
:1054FC00406800220221FFF749BF002340681A468A
:10550C00FFF734BF024B03225A60024A1A607047FD
:10551C004CE6032034790D000021FFF7ABBE0021CF
:10552C00FFF7B0BE10B5044608462170FFF78AFE9F
:10553C0000236360204610BD10B504460078FFF7C9
:10554C00EBFF48B920784FF6FF71FFF753FE207838
:10555C00BDE81040FFF7E3BF10BD13B5044600785B
:10556C000191FFF7D9FF019940B92078FFF74AFE66
:10557C00207802B0BDE81040FFF7D1BF02B010BDDB
:10558C0013B5044600780191FFF7C6FF019940B9A5
:10559C002078FFF73FFE207802B0BDE81040FFF7FF
:1055AC00BEBF02B010BD0000400830B5186000242A
:1055BC0018688842E5B206D90134082C02D040089C
:1055CC001860F5E70725024B5B5D137030BD00BF1B
:1055DC0060790D002DE9F04188B000230446007875
:1055EC0002930E461746FFF797FF054600BB94F84B
:1055FC0000800146142203A801F0F6FD0B232A4675
:10560C0003A94046ADF80C30FFF72CFE04988DF83A
:10561C00075002AB0DF1070207FB06F1FFF7C4FFC1
:10562C0020789DF80710FFF7FDFD2078FFF777FF36
:10563C00029808B0BDE8F08138B5044600780D46F4
:10564C00FFF76AFF0346D0B9616899B10C4A12F8AA
:10565C00010B854202D00133082BF8D10133DBB2A8
:10566C000122D9402046FFF7B5FF2078BDE838402D
:10567C00FFF755BF20782946FFF7D4FDF5E738BD75
:10568C0060790D0008B50078FFF7D4FDC0B208BDF5
:10569C0010B5094B094C022200201A60084B2060FF
:1056AC00A080A071A360FFF73DFE2046054A064985
:1056BC00BDE8104001F03EB860E6032054E603203C
:1056CC000000FFFFB0E40320FD400D0010B50446C0
:1056DC000068FFF7BBFE204610BD10B504460068FD
:1056EC0008B1FFF7B3FE0023C4E90133236010BDFA
:1056FC0038B504460D4600680131FFF7AFFE10B116
:10570C00C4E90005012038BD10B50368044623B177
:10571C0043688B4201D3012010BD2046FFF7E8FF00
:10572C000028F9D0A368002BF5D122681370F2E79A
:10573C0037B50D46114601920446FFF7E5FF019A75
:10574C0028B92046FFF7C9FF204603B030BDA26040
:10575C002946206801F03AFD2268A3680021D15443
:10576C00F2E7002313B5C0E90033044683600373EA
:10577C0041B10846019101F075FD019902462046A0
:10578C00FFF7D6FF204602B010BD10B504460068E6
:10579C0008B1FFF74FFC204610BD000010B5064CB9
:1057AC00002320462360FFF73DFC2046034A0449B2
:1057BC00BDE8104000F0BEBF64E60320B0E4032057
:1057CC0097570D00F8B506460D468F180024BD42BC
:1057DC000CD0336815F8011B9B6830469847031EA4
:1057EC0001DB1C44F3E7002C08BF1C462046F8BD27
:1057FC0013B50446084659B1019101F033FD2368F5
:10580C000199DB680246204602B0BDE810401847FB
:10581C0002B010BD03689B68184738B50D210546CA
:10582C00FFF7F8FF0A2104462846FFF7F3FF204450
:10583C0038BD30B58BB000238DF82430012A98BFC9
:10584C000A2209AC0D46B1FBF2F101FB125303F035
:10585C00FF03092B94BF30333733DBB2AA4204F871
:10586C00013DEFD92146FFF7C3FF0BB030BD2DE949
:10587C00F04186B000AF05460E46381D1421144683
:10588C003B60FFF7F3FD13280ED8391D2846FFF7B0
:10589C00AFFF04461EB12846FFF7BFFF0444204665
:1058AC001837BD46BDE8F08100F1080323F007036B
:1058BC00E846ADEB030D2246411C3B686846FFF7FA
:1058CC00D5FD69462846FFF793FF0446C546E1E738
:1058DC00014B024A1A60704768E6032070790D008C
:1058EC00FAEE087AB4EEE70AF1EE10FA08B511D424
:1058FC00F2EE0C7AB4EEE70AF1EE10FA0ADCDFED08
:10590C00067A60EE277A17EE900A01F01DFC034B25
:10591C00C3E9000108BD00BF0000614570E603202B
:10592C00024B1A68024B1A60704700BF44E4032014
:10593C006CE603200021FFF7FDBC10B5836804461C
:10594C0013B1032201469847204610BD10B50446FA
:10595C00FFF7F3FF204610BD0348044A0449002317
:10596C00836000F0E7BE00BF78E60320B0E40320BC
:10597C0059590D00014B1860704700BF48E40320D3
:10598C0008B50B4B43B100F06BF903681B699847E2
:10599C00002801DDAFF30080064B43B100F0DEF9C7
:1059AC0003681B699847002801DDAFF3008008BD30
:1059BC00000000000000000008B5FFF7E1FFFFF752
:1059CC0029FB014B186008BDD8E703200248034AA5
:1059DC000349121A01F0FABB00F4032004F403206B
:1059EC00307C0D0007B5002300931A466FF0770149
:1059FC00FFF7B2FC03B05DF804FB000007B5438869
:105A0C000A2B08D0502B0BD1094B1B684BB103B0A0
:105A1C005DF804EB1847FFF7E5FF03B05DF804FBF6
:105A2C00002300931A466FF07701FFF795FCF4E71B
:105A3C008CE6032038B5124C1248134D0021FFF7A9
:105A4C0025FD2368AB42114B0CBF012200221A70BA
:105A5C0002D0FFF7BBFF2560FFF7CCFA044601F03C
:105A6C00CBFB0B4B13B12046AFF300800021084851
:105A7C00FFF7DCFCBDE8384006480021FFF762BCAC
:105A8C0000F4032081590D001E1C279A88E6032080
:105A9C0000000000095A0D00704710B5182104468B
:105AAC0000F04DFE204610BDF0B5037D062B8DB0E9
:105ABC000E4600F104074FF0000412D000F1080567
:105ACC0015F8011D0A223046FFF7B3FEAF4204441D
:105ADC0019D0002CF4D02E213046FFF79BFE044445
:105AEC00EEE72F236A4639460A208DF80040FFF76F
:105AFC00A9FA684601F0B6FB33680246DB686946D2
:105B0C0030469847044620460DB0F0BD10B5054B05
:105B1C000446112240F8043B002101F065FB2046AD
:105B2C0010BD00BF98790D000346074A10B543F825
:105B3C00042B01F1100251F8044B43F8044B914231
:105B4C00F9D10A781A7010BD98790D00037D042BD9
:105B5C0004D14068003818BF01207047062B07D1CC
:105B6C0043683BB983682BB9C3681BB90069F1E77B
:105B7C00002070470120704710B59DF8084044EA9A
:105B8C00032343EA024242EA0161042341600375A4
:105B9C0010BD13B5CB7800938B784A780978FFF752
:105BAC00EBFF02B010BD41747047704708B500217F
:105BBC00007CFFF78FFB40EAE07008BD08B50121BF
:105BCC00007CFFF787FB40EAE07008BD08B5007C5D
:105BDC00FFF778FB20EAE07008BD08B5007CFFF702
:105BEC0069FB20EAE07008BD13B50446007C019106
:105BFC00FFF768FB0028019901DC607C20B1207C58
:105C0C00FFF770FB20EAE07002B010BD007CFFF7DC
:105C1C0071BB10B51421044600F091FD204610BD57
:105C2C0010B54FF47A73044608460021C4E90113F9
:105C3C00044B23600123207463741146FFF72AFB85
:105C4C00204610BDAC790D00007C0022FFF72ABB6A
:105C5C0010B514220446002101F0C6FA204610BDEE
:105C6C0010B5104C88B003A8FFF7F2FF2178BFF3F2
:105C7C005B8F11F0010111D120460191FEF714FA4E
:105C8C00019958B103AA0848FFF7CAFF2046FEF74E
:105C9C0010FA064A0649044800F04CFD024808B0C8
:105CAC0010BD00BF90E6032094E60320B0E403206F
:105CBC00B75B0D0070474174704708B5007CFFF767
:105CCC0011FA20EAE07008BD08B5007CFFF7E2F994
:105CDC0020EAE07008BD08B5007CFFF7EBF940EA5C
:105CEC00E07008BD08B5007CFFF7DCF940EAE07015
:105CFC0008BD007CFFF7E6B937B5457C04462DB1ED
:105D0C00207C03B0BDE83040FFF7BCB9007C0191AA
:105D1C00FFF7E8F900280199F2DC284603B030BD02
:105D2C0010B51421044600F00AFD204610BD0000F9
:105D3C0010B54FF0000C0446084611464FF47A7229
:105D4C00C4E901C2044A22600122207462741A461A
:105D5C00FFF790F9204610BDDC790D0013B50E4C01
:105D6C002178BFF35B8F11F0010112D12046019114
:105D7C00FEF79AF9019960B1084A094B0948FFF7F7
:105D8C00D7FF2046FEF795F9074A0849054800F069
:105D9C00D1FC044802B010BDA8E60320ACE60320F9
:105DAC0030E70320B4E70320B0E40320C15C0D000E
:105DBC007047F8B5064615460C468F18BC4206D0FF
:105DCC00336814F8011B9B6830469847F6E7284661
:105DDC00F8BD007C0022FFF7A5B9007C0021FFF77D
:105DEC00A9B9007C0021FFF7ADB9007C0021FFF7B9
:105DFC00B1B9007C0021FFF7B5B910B514210446E8
:105E0C0000F09DFC204610BD10B54FF47A7304468B
:105E1C0008460021C4E90113034B2360207411468A
:105E2C00FFF7B0F9204610BD0C7A0D000023007C62
:105E3C001A461946FFF75EB9007C0022FFF762B9DB
:105E4C00C9B2FFF7F9BF007C0022FFF763B901214B
:105E5C00FFF7F9BF13B503688DF80710DC6B01224F
:105E6C004FF0FF330DF10701A04702B010BD10B485
:105E7C000368DC6B4FF0FF33A4465DF8044B6047BE
:105E8C0013B5134602688DF80710D46B0DF107019A
:105E9C000122A04702B010BD704738B543691A689B
:105EAC00002A054610DAB3F88620B3F884309A42FB
:105EBC000AD103681B699847044628B92B68284601
:105ECC00DB6A9847204638BD0120FCE74369186817
:105EDC00C043C00F70477047064B994210B500F194
:105EEC000C0405D0084600F02FFC002808BF002445
:105EFC00204610BD68790D0010B5AC21044600F0A9
:105F0C001EFC204610BDFEF7C2B82DE9F0414FF043
:105F1C00000886B01D46C0F8048004460E4617469D
:105F2C004146102202A801F05FF96B1C09D04FF416
:105F3C007A70B5FBF0F3CDE9023800FB13535843EC
:105F4C000490606910230093006802AB41F20502D3
:105F5C0040F6FF71FFF71EF9002807DAFFF78EFAFB
:105F6C0003686360002006B0BDE8F081606900231F
:105F7C0000683A463146FFF72DF9031EEEDB184652
:105F8C00F1E7000070B54D69054B04468C3544F8BB
:105F9C00043B06460FCD0FC42B682370304670BDF2
:105FAC0098790D0010B54369B3F88620B3F88430A6
:105FBC009A42044605D06369B3F8842013441879D7
:105FCC0010BD03681B6998470028F4D14FF0FF30CF
:105FDC00F6E710B54369B3F88620B3F884309A42DB
:105FEC00044608D06369B3F88420511CA3F88410CC
:105FFC001344187910BD03681B6998470028F1D128
:10600C004FF0FF30F6E7F8B543691746B3F8862032
:10601C00B3F884309A4205460E4616D06969B1F839
:10602C008430B1F88640E41ABC4228BF3C460433A5
:10603C0022461944304601F0C9F86A69B2F8843036
:10604C002344A2F884302046F8BD03681B699847A6
:10605C000028E3D14FF0FF34F5E700002DE9F043C1
:10606C009846036893B00D460024DB6A0646174633
:10607C00984728466B46224621460094FEF792FF2D
:10608C000546002863D1009B002B4BD05B69002B8D
:10609C0048D006A8FFF73AFD009B5C696378022B99
:1060AC0004D1211D06A8FFF774FD26E00A2B24D18C
:1060BC001122294601A801F097F8A368002B38D0CB
:1060CC0004F108030DF1040C183418685968624681
:1060DC0003C20833A3429446F7D1062301A90CA8A6
:1060EC008DF81430FFF720FD0DF1340CBCE80F00D7
:1060FC0007AC0FC4DCF80030237006A8FFF726FDB0
:10610C0080B1336807ADD3F82090124B0C930FCDB0
:10611C000DAC0FC42B6823703A4643460CA930468D
:10612C00C84705460098FEF735FF284613B0BDE872
:10613C00F083E368002BC3D14FF6FF70D4F81090B6
:10614C00FEF788FF8145BBD104F11401AAE725466F
:10615C00E8E700BF98790D0042690023A2F884306B
:10616C004269A2F8863070472DE9F0411F4603685A
:10617C000C46DB6A8AB0054616469847237DD5F84F
:10618C001480042B0CBF02200A2006220121FFF7E9
:10619C0029F8C8F800006B691B68002B08DA2B681B
:1061AC002846DB6A0024984720460AB0BDE8F081F7
:1061BC002846FFF7D1FFB7B1002303A9F8B2039328
:1061CC00ADF81030FEF70EFF0028E8D16869062301
:1061DC000093006803AB41F20B0240F6FF71FEF72F
:1061EC00D9FF0028DBD11C22002103A800F0FCFF02
:1061FC00237D042B1DD14FF407733046ADF80C30C2
:10620C00FEF730FFADF80E006068FEF723FF049038
:10621C006B691C22186803A9FEF7CCFF0028BED1BD
:10622C0004340FCC6D698C350FC523682B70012499
:10623C00BAE740F61C233046ADF80C30FEF712FFDF
:10624C0005AEADF80E00231D04F11407186859684B
:10625C00324603C20833BB421646F7D1D8E70000DA
:10626C0030B54269B2F886308BB004462BB1B2F827
:10627C0084209A4201D1FFF76FFF616908680028FA
:10628C0018DBB1F886507F2D14D804310823C5F1E2
:10629C0080022944FEF796FF002813DD6369B3F8EA
:1062AC0086200AB9A3F884206369B3F886201044C9
:1062BC00A3F886006369B3F88600B3F88430C01A7B
:1062CC000BB030BDFFF7DAF803680B2BF2D0FFF7F9
:1062DC00D5F803680B2BEDD020230025CDE9023532
:1062EC00FFF7CCF803680193084B0949009302AA05
:1062FC002B463220FFF70EF863691868FEF752FF41
:10630C0063694FF0FF321A60D4E700BF337A0D0097
:10631C002C7A0D0010B5436904461868002801DB7F
:10632C00FEF740FF63694FF0FF321A60606911227B
:10633C0000218C3000F058FF2046BDE81040FFF7DC
:10634C000BBF10B5002304460160C0F884308830C0
:10635C00FFF7DCFB204610BD73B500234FF47A72B7
:10636C00C0E901320E4A0361026043610446AC206D
:10637C000191FDF788FE051E05F10C0608D00123DE
:10638C00C5E90133074B01992B603046FFF7D9FF64
:10639C002046C4E90565FFF7DFFE02B070BD00BF03
:1063AC00687A0D004C7A0D0010B54FF0FF310446A1
:1063BC00FFF7D2FF204610BD10B504460068002838
:1063CC0001DBFEF7EFFE204610BD0C30FFF7F4BFEB
:1063DC00002240681146FEF7E1BF002240681146DA
:1063EC00FEF7FCBF002240681146FFF707B8406873
:1063FC000022FEF7FBBF4068002281F00101FEF78E
:10640C00E5BF002340681A461946FEF7D7BF0023A4
:10641C0040681A461946FEF7C9BF0022406811466B
:10642C00FEF7ACBF406800220221FEF7AFBF00238D
:10643C0040681A46FEF79ABF024B04225A60024A81
:10644C001A607047C8E70320B47A0D000023406837
:10645C001A46FEF78BBF406800220221FEF796BF5A
:10646C00002240681146FEF789BF002240681146A1
:10647C00FEF794BF002340681A461946FEF796BFF4
:10648C00002340681A461946FEF798BF4068002260
:10649C0081F00101FEF79ABF40680022FEF7A6BF0B
:1064AC00002240681146FEF7A9BF00224068114641
:1064BC00FEF794BF2DE9F043002495B016460D4627
:1064CC000746FFF723FB214618220EA8009400F084
:1064DC008BFE4023CDE90C3421466B460CAA30468A
:1064EC00FEF760FD0446002846D10246012168688B
:1064FC00FEF754FF0221804622466868FEF74EFFE5
:10650C00009E81462146002E36D0002934D1736876
:10651C00022B03D00A2B0BD0F669F4E7B8F1000F6D
:10652C0004D0716938460431FFF733FB4146F3E779
:10653C00B9F1000F01D14946EEE77469102201A8A8
:10654C0000F052FE06238DF8143001AD04F108035F
:10655C001834186859682A4603C20833A3421546F2
:10656C00F7D101A906A807ADFFF7DEFA0FCD3C1D48
:10657C000FC42B682370DEE70098FEF70BFD38463E
:10658C0015B0BDE8F0830000024B034A1A600022EC
:10659C005A607047D0E70320E87A0D00232813B522
:1065AC0002D9002002B010BDA0F10B03022B1AD8A7
:1065BC00174C2178BFF35B8F11F001010BD12046F2
:1065CC000191FDF771FD019928B11248FEF7AAFF60
:1065DC002046FDF76EFD0F4B1878FEF73BFE0028AA
:1065EC00DFD10120DEE7012809D800F07BF800217B
:1065FC00007CFEF7BFFD80F00100C0B2D2E7093885
:10660C000128EED8FFF7AAFB007CFEF763FDF2E74A
:10661C0040E6032044E60320232838B504460D4603
:10662C000AD8FF2908D0FFF7B9FF28B12946204620
:10663C00BDE83840FEF7BEBC38BD38B504460D4643
:10664C00FEF7C0FCFF2810D0062804D84D2323FAEF
:10665C0000F0C30709D42046FFF7A0FF28B1294654
:10666C002046BDE83840FEF7B5BC38BD2DE9F041F9
:10667C0090461F46002406460D46B8F1000F13D174
:10668C0047FA04F101F001013046FFF7D6FF012172
:10669C002846FFF7D2FF013400212846FFF7CDFF33
:1066AC00082CEAD1BDE8F081C4F1070147FA01F1E9
:1066BC00E8E7000038B50023202543801423044666
:1066CC000380856005610649284600F03AF80449C4
:1066DC006060284600F035F8E060204638BD00BF09
:1066EC00147B0D0030B50F4D2978BFF35B8F11F083
:1066FC00010487B013D12846FDF7D6FC78B101A868
:10670C00FFF7D8FF01AA21460748FFF77DFB284673
:10671C00FDF7CFFC054A0649034800F00BF8024888
:10672C0007B030BDDCE70320E0E70320B0E4032032
:10673C00BD5D0D000B460146184600F039BDFDF756
:10674C00A6BCFDF7A2BC0000014900F0F9B800BFDF
:10675C00307B0D007FB500241023CDE90234036893
:10676C0000949E698DF8044015466B461268B0473C
:10677C009DF8043003F00603062B03BF009B2B602F
:10678C000120204604B070BD0098904214BF012037
:10679C000620704710B5034B0360044600F0CDF89B
:1067AC00204610BD707B0D0010B50446FFF7F2FFBC
:1067BC0020460821FFF7C3FF204610BD2DE9F0410C
:1067CC001F46DDE90834DDF8188098450646154665
:1067DC0007D1079900F0B4F818B165710020BDE835
:1067EC00F0813946304600F0ABF80028F6D0012392
:1067FC00C4F800802571A371F0E738B515461C4626
:10680C0000F09EF820B10823E36006232560237175
:10681C0038BD73B505460C4601921E4600F090F843
:10682C0050B9032E08D82368019A5B692946204683
:10683C0002B0BDE87040184702B070BD10B5034BF4
:10684C0003600446FFF7A6FF204610BDD07B0D0069
:10685C0010B50446FFF7F2FF20460C21FFF76FFF3F
:10686C00204610BDF7B5089F974205460E461446C4
:10687C000AD0A86802680897156A31462246AC46C9
:10688C0003B0BDE8F04060471946019300F058F89A
:10689C00019B0028EDD0062003B0F0BD2DE9F14F8F
:1068AC000D461946DDE90A4BDDE90CA68146174673
:1068BC00984600F045F890B1002D3460377109DB33
:1068CC0061198A450CBF06210121B171002001B06C
:1068DC00BDE8F08F0235F9D10123B371F6E75445C9
:1068EC0006D15946484600F02BF808B17771EDE710
:1068FC00D9F808000368CDE90CA6CDE90A4BDC6990
:10690C003A4643462946A44601B0BDE8F04F6047DD
:10691C002DE9F04107460C4615461E46FFF76DFF64
:10692C0048B9B86803689F692A4633462146BC4675
:10693C00BDE8F0416047BDE8F0817047002070472A
:10694C00814208B50ED0406803782A2B0CD04968D8
:10695C000B782A2B08BF013100F072FCB0FA80F0E2
:10696C00400908BD0120FCE70020FAE781F0004156
:10697C0002E000BF83F0004330B54FEA41044FEA18
:10698C00430594EA050F08BF90EA020F1FBF54EAB3
:10699C00000C55EA020C7FEA645C7FEA655C00F04F
:1069AC00E2804FEA5454D4EB5555B8BF6D420CDD20
:1069BC002C4480EA020281EA030382EA000083EAA3
:1069CC00010180EA020281EA0303362D88BF30BD43
:1069DC0011F0004F4FEA01314FF4801C4CEA113199
:1069EC0002D0404261EB410113F0004F4FEA0333F8
:1069FC004CEA133302D0524263EB430394EA050F83
:106A0C0000F0A780A4F10104D5F1200E0DDB02FAF1
:106A1C000EFC22FA05F2801841F1000103FA0EF285
:106A2C00801843FA05F359410EE0A5F120050EF14B
:106A3C00200E012A03FA0EFC28BF4CF0020C43FA7C
:106A4C0005F3C01851EBE37101F0004507D54FF089
:106A5C00000EDCF1000C7EEB00006EEB0101B1F5D9
:106A6C00801F1BD3B1F5001F0CD349085FEA30001F
:106A7C004FEA3C0C04F101044FEA445212F5800F2A
:106A8C0080F09A80BCF1004F08BF5FEA500C50F1C7
:106A9C00000041EB045141EA050130BD5FEA4C0CAA
:106AAC00404141EB0101013C28BFB1F5801FE9D207
:106ABC0091F0000F04BF01460020B1FA81F308BF2A
:106ACC002033A3F10B03B3F120020CDA0C3208DDF6
:106ADC0002F1140CC2F10C0201FA0CF021FA02F1D1
:106AEC000CE002F11402D8BFC2F1200C01FA02F141
:106AFC0020FA0CFCDCBF41EA0C019040E41AA2BF66
:106B0C0001EB0451294330BD6FEA04041F3C1CDA2D
:106B1C000C340EDC04F11404C4F1200220FA04F04D
:106B2C0001FA02F340EA030021FA04F345EA0301F7
:106B3C0030BDC4F10C04C4F1200220FA02F001FAB9
:106B4C0004F340EA0300294630BD21FA04F029463B
:106B5C0030BD94F0000F83F4801306BF81F48011D4
:106B6C000134013D4EE77FEA645C18BF7FEA655C47
:106B7C0029D094EA050F08BF90EA020F05D054EA19
:106B8C00000C04BF1946104630BD91EA030F1EBF1E
:106B9C000021002030BD5FEA545C05D14000494122
:106BAC0028BF41F0004130BD14F580043CBF01F515
:106BBC00801130BD01F0004545F0FE4141F47001FB
:106BCC004FF0000030BD7FEA645C1ABF19461046D6
:106BDC007FEA655C1CBF0B46024650EA013406BFD7
:106BEC0052EA033591EA030F41F4002130BD00BF96
:106BFC0090F0000F04BF0021704730B54FF4806453
:106C0C0004F132044FF000054FF0000150E700BFD3
:106C1C0090F0000F04BF0021704730B54FF4806432
:106C2C0004F1320410F0004548BF40424FF000011F
:106C3C003EE700BF42004FEAE2014FEA31014FEA62
:106C4C0002701FBF12F07F4393F07F4F81F06051B1
:106C5C00704732F07F4208BF704793F07F4F04BFFC
:106C6C0041F40021704730B54FF4607401F00045D9
:106C7C0021F000411CE700BF50EA010208BF704739
:106C8C0030B54FF000050AE050EA010208BF70472A
:106C9C0030B511F0004502D5404261EB41014FF493
:106CAC00806404F132045FEA915C3FF4D8AE4FF09B
:106CBC0003025FEADC0C18BF03325FEADC0C18BF7E
:106CCC00033202EBDC02C2F1200300FA03FC20FACF
:106CDC0002F001FA03FE40EA0E0021FA02F114441C
:106CEC00BDE600BF70B54FF0FF0C4CF4E06C1CEA35
:106CFC0011541DBF1CEA135594EA0C0F95EA0C0FA6
:106D0C0000F0DEF82C4481EA030621EA4C5123EA18
:106D1C004C5350EA013518BF52EA033541F4801147
:106D2C0043F4801338D0A0FB02CE4FF00005E1FBFA
:106D3C0002E506F00042E0FB03E54FF00006E1FB44
:106D4C0003569CF0000F18BF4EF0010EA4F1FF0487
:106D5C00B6F5007F64F5407404D25FEA4E0E6D41C7
:106D6C0046EB060642EAC62141EA55514FEAC520D8
:106D7C0040EA5E504FEACE2EB4F1FD0C88BFBCF554
:106D8C00E06F1ED8BEF1004F08BF5FEA500E50F105
:106D9C00000041EB045170BD06F0004646EA0101CB
:106DAC0040EA020081EA0301B4EB5C04C2BFD4EBFD
:106DBC000C0541EA045170BD41F480114FF0000EF6
:106DCC00013C00F3AB8014F1360FDEBF002001F064
:106DDC00004170BDC4F10004203C35DA0C341BDCDE
:106DEC0004F11404C4F1200500FA05F320FA04F0B0
:106DFC0001FA05F240EA020001F0004221F00041E4
:106E0C0010EBD37021FA04F642EB06015EEA430E56
:106E1C0008BF20EAD37070BDC4F10C04C4F1200586
:106E2C0000FA04F320FA05F001FA04F240EA020039
:106E3C0001F0004110EBD37041F100015EEA430E0A
:106E4C0008BF20EAD37070BDC4F1200500FA05F22A
:106E5C004EEA020E20FA04F301FA05F243EA0203A9
:106E6C0021FA04F001F0004121FA04F220EA0200B8
:106E7C0000EBD3705EEA430E08BF20EAD37070BDFE
:106E8C0094F0000F0FD101F00046400041EB0101DE
:106E9C0011F4801F08BF013CF7D041EA060195F0C0
:106EAC00000F18BF704703F00046520043EB03037A
:106EBC0013F4801F08BF013DF7D043EA0603704767
:106ECC0094EA0C0F0CEA135518BF95EA0C0F0CD072
:106EDC0050EA410618BF52EA4306D1D181EA0301B8
:106EEC0001F000414FF0000070BD50EA410606BFB2
:106EFC001046194652EA430619D094EA0C0F02D1F7
:106F0C0050EA013613D195EA0C0F05D152EA03363B
:106F1C001CBF104619460AD181EA030101F0004159
:106F2C0041F0FE4141F470014FF0000070BD41F0A2
:106F3C00FE4141F4780170BD70B54FF0FF0C4CF47C
:106F4C00E06C1CEA11541DBF1CEA135594EA0C0F9B
:106F5C0095EA0C0F00F0A7F8A4EB050481EA030EE8
:106F6C0052EA03354FEA013100F088804FEA0333CF
:106F7C004FF0805545EA131343EA12634FEA02229D
:106F8C0045EA111545EA10654FEA00260EF000415E
:106F9C009D4208BF964244F1FD0404F5407402D2B0
:106FAC005B084FEA3202B61A65EB03055B084FEA41
:106FBC0032024FF480104FF4002CB6EB020E75EB3E
:106FCC00030E22BFB61A754640EA0C005B084FEA66
:106FDC003202B6EB020E75EB030E22BFB61A7546E3
:106FEC0040EA5C005B084FEA3202B6EB020E75EB2E
:106FFC00030E22BFB61A754640EA9C005B084FEAA6
:10700C003202B6EB020E75EB030E22BFB61A7546B2
:10701C0040EADC0055EA060E18D04FEA051545EAA1
:10702C0016754FEA06164FEAC30343EA52734FEA4A
:10703C00C2025FEA1C1CC0D111F4801F0BD141EAC3
:10704C0000014FF000004FF0004CB6E711F4801F28
:10705C0004BF01430020B4F1FD0C88BFBCF5E06F08
:10706C003FF6AFAEB5EB030C04BFB6EB020C5FEA18
:10707C00500C50F1000041EB045170BD0EF0004E6D
:10708C004EEA113114EB5C04C2BFD4EB0C0541EA9F
:10709C00045170BD41F480114FF0000E013C90E69C
:1070AC0045EA060E8DE60CEA135594EA0C0F08BF60
:1070BC0095EA0C0F3FF43BAF94EA0C0F0AD150EA5F
:1070CC0001347FF434AF95EA0C0F7FF425AF1046F2
:1070DC0019462CE795EA0C0F06D152EA03353FF41A
:1070EC00FDAE1046194622E750EA410618BF52EA97
:1070FC0043067FF4C5AE50EA41047FF40DAF52EA6B
:10710C0043057FF4EBAE12E74A0011D212F50012E0
:10711C0011D20DD56FF47873B3EB62520ED44FEAE3
:10712C00C12343F0004343EA505323FA02F0704763
:10713C004FF00000704750EA013002D14FF0FF30A1
:10714C0070474FF00000704707EE900AF5EEC07ADA
:10715C00F1EE10FA01D400F00BB8F1EE677A08B535
:10716C0017EE900A00F004F8404261EB410108BDB3
:10717C00D0B5FFF75FFD0C4B002206460F46FFF71C
:10718C00B1FDFFF7C1FF0446FFF732FD074B0022AC
:10719C00FFF7A8FD02460B4630463946FFF7EAFBDF
:1071AC00FFF7B2FF2146D0BD0000F03D0000F041DA
:1071BC0010B5054C13462CB10A4601460220AFF31C
:1071CC00008010BD2046FCE7000000000A449142FC
:1071DC0000F1FF3300D1704710B511F8014B03F8E3
:1071EC00014F9142F9D110BD02440346934200D1A4
:1071FC00704703F8011BF9E738B50D4B1D68AB6BF5
:10720C0004467BB91820FEF719F90A4A0A4BA86301
:10721C00C0E90023094B83600B23838101220023E7
:10722C00C0E90423AB6B00221C615A6138BD00BF5E
:10723C0048E403200E33CDAB34126DE6ECDE0500D2
:10724C0010F8012B11F8013B012A28BF9A42F7D004
:10725C00D01A7047034611F8012B03F8012B002AB2
:10726C00F9D17047034613F8012B002AFBD1181AE9
:10727C00013870471D400D0059400D0081400D0034
:10728C0085400D0000000000466F756E642061643F
:10729C0064726573733A2025303369202830782561
:1072AC0030325829200A00446F6E653A20466F75BB
:1072BC006E64202569206465766963652873292EC0
:1072CC00200A00436F6E6E656374696E6720746F7D
:1072DC0020496E7465726E6574200A002E000A20B7
:1072EC00436F6E6E65637465642121212121212019
:1072FC000A004D6973746572466C657800696F2E6F
:10730C0061646166727569742E636F6D0061696F7B
:10731C005F655A454C36344C726C53435075336729
:10732C006A6778614B7548725A64733441004D69D1
:10733C0073746572466C65782F66656564732F4748
:10734C007265656E427574746F6E004D6973746509
:10735C0072466C65782F66656564732F52616E6436
:10736C006F6D4E756D6265720000000000000000CC
:10737C0000000000C5400D0075420D009D4D0D0034
:10738C00D1570D007D460D00B54A0D000D450D0081
:10739C00A1430D00714B0D000F4C0D00454C0D0021
:1073AC00614C0D0000000000003E5B4F5B3E3E6BED
:1073BC004F6B3E1C3E7C3E1C183C7E3C181C577D83
:1073CC00571C1C5E7F5E1C00183C1800FFE7C3E7CF
:1073DC00FF0018241800FFE7DBE7FF30483A060EE1
:1073EC002629792926407F050507407F05253F5A28
:1073FC003CE73C5A7F3E1C1C08081C1C3E7F142298
:10740C007F22145F5F005F5F06097F017F00668942
:10741C00956A606060606094A2FFA29408047E0488
:10742C000810207E201008082A1C08081C2A0808AE
:10743C001E101010100C1E0C1E0C30383E3830066E
:10744C000E3E0E06000000000000005F000000076A
:10745C00000700147F147F14242A7F2A1223130898
:10746C00646236495620500008070300001C224174
:10747C00000041221C002A1C7F1C2A08083E080818
:10748C0000807030000808080808000060600020C8
:10749C00100804023E5149453E00427F40007249AB
:1074AC004949462141494D331814127F102745454F
:1074BC0045393C4A49493141211109073649494965
:1074CC0036464949291E00001400000040340000D3
:1074DC00000814224114141414140041221408023C
:1074EC00015909063E415D594E7C1211127C7F49AF
:1074FC004949363E414141227F4141413E7F494904
:10750C0049417F090909013E414151737F0808082F
:10751C007F00417F41002040413F017F0814224100
:10752C007F404040407F021C027F7F0408107F3E5A
:10753C004141413E7F090909063E4151215E7F09C7
:10754C00192946264949493203017F01033F40402E
:10755C00403F1F2040201F3F4038403F6314081419
:10756C006303047804036159494D43007F41414151
:10757C000204081020004141417F04020102044032
:10758C0040404040000307080020545478407F28B6
:10759C004444383844444428384444287F385454AC
:1075AC00541800087E090218A4A49C787F080404CF
:1075BC007800447D40002040403D007F102844006E
:1075CC0000417F40007C047804787C0804047838FF
:1075DC0044444438FC1824241818242418FC7C082F
:1075EC00040408485454542404043F44243C4040AC
:1075FC00207C1C2040201C3C4030403C442810285F
:10760C00444C9090907C4464544C440008364100A7
:10761C000000770000004136080002010204023C21
:10762C002623263C1EA1A161123A4040207A3854F0
:10763C00545559215555794121545478412155546B
:10764C00784020545579400C1E52721239555555BC
:10765C0059395454545939555454580000457C41A7
:10766C000002457D420001457C40F0292429F0F0C0
:10767C00282528F07C545545002054547C547C0A11
:10768C00097F4932494949323248484832324A48DE
:10769C0048303A4141217A3A42402078009DA0A0DE
:1076AC007D39444444393D4040403D3C24FF242432
:1076BC00487E4943662B2FFC2F2BFF0929F620C04F
:1076CC00887E090320545479410000447D413048A0
:1076DC00484A32384040227A007A0A0A727D0D19E3
:1076EC00317D2629292F28262929292630484D4045
:1076FC0020380808080808080808382F10C8ACBA41
:10770C002F102834FA00007B000008142A142222BF
:10771C00142A1408AA005500AAAA55AA55AA0000B2
:10772C0000FF00101010FF00141414FF001010FFC5
:10773C0000FF1010F010F0141414FC001414F700D7
:10774C00FF0000FF00FF1414F404FC141417101FA6
:10775C0010101F101F1414141F00101010F0000034
:10776C0000001F101010101F10101010F01000004F
:10777C0000FF101010101010101010FF100000005F
:10778C00FF140000FF00FF00001F10170000FC0496
:10779C00F414141710171414F404F40000FF00F779
:1077AC0014141414141414F700F7141414171410DC
:1077BC00101F101F141414F4141010F010F000000B
:1077CC001F101F0000001F14000000FC140000F02C
:1077DC0010F01010FF10FF141414FF141010101FD1
:1077EC0000000000F010FFFFFFFFFFF0F0F0F0F0E2
:1077FC00FFFFFF0000000000FFFF0F0F0F0F0F38FF
:10780C00444438447C2A2A3E147E02020606027E38
:10781C00027E0263554941633844443C04407E2057
:10782C001E2006027E020299A5E7A5991C2A492A68
:10783C001C4C7201724C304A4D4D303048784830F7
:10784C00BC625A463D3E494949007E0101017E2AEF
:10785C002A2A2A2A44445F444440514A4440404422
:10786C004A51400000FF0103E080FF000008086B54
:10787C006B083612362436060F090F06000018184E
:10788C000000001010003040FF0101001F01011E1C
:10789C0000191D1712003C3C3C3C0000000000008D
:1078AC0000000000000000000000000000000000CC
:1078BC009D4D0D00D1570D00A1400D00B54A0D0096
:1078CC00D94B0D00F54B0D00714B0D000F4C0D00FD
:1078DC00454C0D00614C0D00000000000000000044
:1078EC00C7400D0083420D00114E0D00BD4E0D0022
:1078FC00EF4E0D00254E0D00654E0D0000000000F2
:10790C00000000000000000000000000A1400D007D
:10791C00A1400D00A1400D00A1400D00A1400D00A3
:10792C00000000000000000007550D00FD540D0084
:10793C00F3540D00E9540D00DD540D00D1540D002D
:10794C00C5540D00BD540D00B3540D00A9540D00C9
:10795C00C1640D0000081018202830380000000009
:10796C00000000006170700025592D256D2D2564D7
:10797C005425483A254D3A2553257A006173637492
:10798C00696D65000000000000000000B55A0D0094
:10799C00A55A0D00A75A0D000000000000000000C1
:1079AC00B75B0D001F5C0D00F55B0D00D1570D0092
:1079BC00E75B0D00B95B0D00C95B0D00195C0D0098
:1079CC00D95B0D00B35B0D0000000000000000004F
:1079DC00C15C0D002D5D0D00055D0D00D1570D0036
:1079EC00D55C0D00F15C0D00E35C0D00FF5C0D003F
:1079FC00C35C0D00C75C0D0000000000000000001F
:107A0C00BD5D0D00075E0D00DF5D0D00BF5D0D005F
:107A1C00E75D0D00EF5D0D00F75D0D00FF5D0D00E6
:107A2C00776972696E670072656376206572726F32
:107A3C0072203D20256400000000000000000000C2
:107A4C00E35E0D00055F0D00D7630D00135F0D00A5
:107A5C00E55E0D000000000000000000C9400D00B4
:107A6C0029410D00615E0D007B5E0D006D620D0005
:107A7C00DF5F0D00B15F0D00A55E0D0075610D009F
:107A8C0069600D0013600D0021630D00A75E0D00F1
:107A9C00D95E0D008D5E0D00175F0D00915F0D001E
:107AAC0000000000000000003B640D0031640D007C
:107ABC0027640D00DD630D001B640D000F640D00C9
:107ACC0003640D00FB630D00F1630D00E7630D0013
:107ADC00C1640D00000000000000000059640D009E
:107AEC0063640D006D640D0077640D0081640D00FE
:107AFC008D640D0099640D00A5640D00AD640D003E
:107B0C00B7640D00C1640D0000537431395F5370BC
:107B1C005F6D616B655F7368617265645F746167EB
:107B2C0000000000707B0D00157B0D00D07B0D005C
:107B3C00447B0D00F47B0D004E31305F5F63787831
:107B4C00616269763131375F5F636C6173735F7447
:107B5C007970655F696E666F45000000000000007B
:107B6C00387B0D00A1670D00B5670D0049690D004C
:107B7C0049690D001F680D0061670D0007680D0055
:107B8C00C9670D0095670D00D07B0D00A07B0D0023
:107B9C00387B0D004E31305F5F63787861626976B7
:107BAC003132305F5F73695F636C6173735F7479DB
:107BBC0070655F696E666F45000000000000000094
:107BCC00947B0D0049680D005D680D0049690D003E
:107BDC0049690D001F680D0061670D001D690D00DE
:107BEC00A9680D0071680D00707B0D00FC7B0D0009
:107BFC00537439747970655F696E666F00000000AC
:107C0C0091420D0011550D009D560D00A9570D0008
:107C1C00DD580D002D590D0065590D0045640D0002
:047C2C0095650D004D
:047C30000000000050
:107C3400000103070F1F3F7F0080C0E0F0F8FCFE47
:107C44000000000000000000000000000000000030
:107C54000000000000000000000000000000000020
:107C64000000000000000000000000000000000010
:107C74000000000000000000000000000000008080
:107C840080800000000000000000000000000000F0
:107C9400008080C0C0000000000000000000000060
:107CA40000000000000000000000000000000000D0
:107CB40000000000000000000000000000000000C0
:107CC40000000000000000000000000000000000B0
:107CD4000000000080C0E0F0F8FCF8E000000000C4
:107CE4000000000000000000000000000080808010
:107CF400808000808000000000808080808000FF01
:107D0400FFFF000000008080808000008080000071
:107D140080FFFF80800080800080808080008080E1
:107D24000000000000808000008C8E84000080F839
:107D3400F8F88000000000000000000000000000CF
:107D4400F0F0F0F0F0F0F0F0F0F0F0F0E0E0C080EF
:107D540000E0FCFEFFFFFF7FFFFFFFFFFF000000CE
:107D64000000000000000000000000FEFFC7010149
:107D7400010183FFFF00007CFEC70101010183FFB5
:107D8400FFFF0038FEC78301010183C7FFFF000026
:107D940001FFFF010100FFFF0701010100007FFF58
:107DA40080000000FFFF7F0000FFFFFF000001FFD5
:107DB400FFFF0100000000000000000000000000C0
:107DC400030F3F7F7FFFFFFFFFFFFFFFE7C7C78F63
:107DD4008F9FBFFFFFC3C0F0FFFFFFFFFFFCFCFC52
:107DE400FCFCFCFCFCF8F8F0F0E0C0000103030329
:107DF4000303010303000000000103030303010163
:107E04000301000000010303030301010303000055
:107E14000003030000000303000000000000000151
:107E24000303030303010000000103010000000336
:107E3400030100000000000000000000000000003A
:107E440000000080C0E0F0F9FFFFFFFFFF3F1F0FBD
:107E540087C7F7FFFF1F1F3DFCF8F8F8F87C7DFF8C
:107E6400FFFFFFFFFFFFFF7F3F0F070030300000E1
:107E740000000000000000000000000000000000FE
:107E840000000000FEFEFC000000000000000000F6
:107E940000000000000000000000000000E0C0003E
:107EA400000000000000000000003030000000006E
:107EB40000000000000000000000000000000000BE
:107EC40000C0FEFFFFFFFFFFFFFFFFFF7F7F3F1F9D
:107ED4000F071F7FFFFFF8F8FFFFFFFFFFFEF8E02B
:107EE400000000010000000000000000FEFE000091
:107EF40000FCFEFC0C06060EFCF80000F0F81C0E5C
:107F04000606060CFFFFFF0000FEFE00000000FC5A
:107F1400FEFC00183C7E66E6CE84000006FFFF06E9
:107F240006FCFEFC0C0606060000FEFE0000C0F87F
:107F3400FC4E4646464E7C7840183C76E6CECC80D5
:107F4400000000000000000000000000000000002D
:107F54000000000001070F1F1F3F3F3F3F1F0F039B
:107F64000000000000000000000000000F0F0000EF
:107F7400000F0F0F000000000F0F000003070E0C8E
:107F840018180C060F0F0F0000010F0E0C180C0F21
:107F9400070100040E0C180C0F070000000F0F005F
:107FA400000F0F0F0000000000000F0F000000077B
:107FB400070C0C181C0C060600040E0C180C0F07FA
:107FC40000000000000000000000000000000000AD
:107FD400000000000000000000000000000000009D
:107FE400000000000000000000000000000000008D
:107FF400000000000000000000000000000000007D
:10800400000000000000000000000000000000006C
:10801400000000000000000000000000000000005C
:10802400000000000000000000000000000000004C
:10803400000000000000000000000000000000003C
:1080440088790D004CE403200000000000000000CB
:10805400000000000000000000000000000000001C
:10806400000000000000000000000000000000000C
:1080740000000000000000000000000000000000FC
:1080840000000000000000000000000000000000EC
:1080940000000000000000000000000000000000DC
:0880A4000000000000000000D4
:1080AC00FFFFFFFF00000102030405060708090A91
:1080BC000B0C0D0E0F101112131415161718191A8C
:0880CC001B1C1D1E1F202800D3
:0480D4007856341294
:04000003D000401CCD
:00000001FF
