:02000002D0002C
:1040000000400D00F8BD0D00000006000C00050189
:084010000401DB0700000000C1
:04401800DCA90D0012
:1040200009480A49884208B505D0094A824202D0A7
:10403000121A06F0ABFB0748074A0021121A06F0D5
:10404000CDFB014808BD00BF50DF03204CB90D0077
:10405000D4E30320D8E30320F4E7032070B5074E30
:10406000074C03F0E1F9A41BA4080025A54200D1E8
:1040700070BD56F8043B98470135F7E714B90D00B9
:1040800038B90D0000F05CB808B500F06DF9BDE876
:10409000084003F08BB902F00FBD02F00DBD02F035
:1040A00013BD000008B5034A00210C2002F068FC93
:1040B000FEE700BF61660D000078B0FA80F04009AD
:1040C00070470123037070477047704738B58469A3
:1040D0000A4B036005467CB16368013B63605BB9D2
:1040E000236820469B689847A368013BA3601BB9DF
:1040F00023682046DB689847284638BD54B60D0033
:1041000010B50446006808B102F0DEFC204610BD80
:104110000EB403B503AB002153F8042B019303F055
:10412000A0F802B05DF804EB03B0704710B5044688
:10413000FFF7CCFF20461C2104F053F8204610BDA9
:1041400070B503F087FA4FF4165103F077FA0121A6
:10415000072003F087FF0021132003F083FF0021D5
:10416000102003F07FFF0021112003F07BFF524C51
:10417000524E534D04F008F803F052FB0023236025
:1041800004F002F8216803F081FB03F0FDFF03F067
:1041900084FB60B903F05EFA236831461A46FFF7E4
:1041A000B7FF2B68012001332B6003F0BDF82368B3
:1041B00001337F2B2360E3DD03F04CFA404B414990
:1041C0001A68FFF7A5FF3C2202213F4800F0ECFEF1
:1041D0003D4800F079FE4FF4FA6003F0A5F83A4844
:1041E00000F0FAFD3848002101F069F93648012154
:1041F00001F05BF93448012101F05CF9002211461D
:10420000314801F04FF931492F4802F010FF2E4894
:1042100000F05AFE4FF4FA6003F086F8B9EE080A8F
:1042200003F058F802F030FC10B1002002F034FC2A
:10423000642003F079F803F00DFA2549254C264D4A
:10424000FFF766FF204800F0C7FD002211461E4818
:1042500001F028F921491C48FFF75AFF1A4800F0DD
:1042600033FE002360681A46194602F0BDFB0022A7
:104270006068114602F0C0FB40B103F0EBF929463B
:10428000FFF746FF642003F04FF8F0E703F0E2F990
:104290001349FFF73DFF13490B48FFF739FF0A4861
:1042A00000F012FE1049114801F078FABDE87040A4
:1042B0000F48762102F025B914E50320F0A90D007E
:1042C000C8E403200FAA0D00CCE403202BAA0D00A4
:1042D00058AA0D00C8E70320DAAA0D0071AA0D0044
:1042E00088AA0D00E1AA0D0090E4032024E5032034
:1042F0004CE40320F8B5184801F0F5F850BB03F082
:10430000A9F91649144E164F02F07EFE124801F02C
:1043100006FC0446B8B103F09DF921460546304637
:1043200001F01AFA0146284602F081FE03F092F9E4
:10433000394602F07CFE304601F01CFA41F288302A
:1043400002F0F2FFE2E703F085F9BDE8F840054925
:1043500002F06DBEF8BD00BF24E503209CAA0D004D
:10436000B3AA0D00DCAA0D002DE9F04F2DED048B52
:104370001A4C85B0FFF7BEFF02F07AF92268801A66
:10438000174A904214D903F065F91649FFF7C0FEA9
:104390001548012101F094FA38B903F05BF913498B
:1043A000FFF7B6FE104801F0E5F902F061F9206070
:1043B0000D4E0F4D4FF47A71304601F00AFAE8B114
:1043C000A842F7D1681D06F0BBF90A4C206003F043
:1043D00041F922680849FFF79BFEEBE718E5032047
:1043E000C0D40100ECAA0D0024E50320FBAA0D00B7
:1043F00090E4032038E603200BAB0D00D64BD74CDE
:104400001978072003F03FFE132003F068FE07EE43
:10441000900AF8EEE77AC4ED007A03F01BF994ED08
:10442000000A022102F00EFFD4ED007A9FEDCC7A53
:1044300077EEC77AF1EE677AC4ED007A03F00AF9F5
:1044400094ED000A022102F0FDFED4ED006AB3EE05
:10445000017AC6EE877AFDEEE77A17EE904A03F00E
:10446000F9F8002C054680F2F3812D2102F0D0FDF1
:1044700061420A22284602F0E4FD284602F0CBFD04
:10448000132C0BDC0121072003F0FDFD4FF4FA7023
:1044900002F04AFF0021072003F0F5FD03F0DAF8EF
:1044A0002246B049B04FB14EDFF82883B04DDFF857
:1044B00028B3FFF72DFEAF4801F0AEFCAE4B10EE77
:1044C000100A83ED000A05F0A5FA97A3D3E90023AB
:1044D00005F0F8FA0022A94B05F03EF905F0EAFDD7
:1044E0003860A44801F0C6FCA54B10EE100A83ED1D
:1044F000000A05F08FFA8EA3D3E9002305F00CFC27
:1045000005F0D8FD30609B4801F0F6FD0021102039
:1045100088ED000A03F01DFE9A4B18602B681844C2
:10452000286002F0A5F8984BCDF80C80D3F800A0D5
:10453000DBF80030C01A5045CDE9017640F28D809D
:104540002868924E05F044FA80465046894605F0A8
:104550003FFA8F4B002205F0B5FA02460B46404663
:10456000494605F0D9FB05F0A5FD306003F072F86F
:104570000746306805F04EFA02460B463846854934
:10458000854FFFF7C5FD306805F044FA9FED6A1BC3
:1045900041EC100B03F03CFF96ED008A18EE100A78
:1045A00059EC108B05F036FA65A3D3E9002341ECF2
:1045B000190B4046494605F085FA53EC192B804605
:1045C000894619EE100A194605F07CFA5EA3D3E974
:1045D000002305F077FA02460B464046494605F0AF
:1045E000B9F8DFED6E7A68EE277A804617EE900A0A
:1045F000894605F00FFA02460B464046494605F04B
:10460000ABF853A3D3E9002305F0A6F805F052FD5B
:10461000386003F01FF80A22296802F012FD03F047
:1046200019F85F4902F0F0FC03F014F896ED000A67
:10463000022102F0EDFD03F00DF8594902F0E4FC0F
:1046400003F008F897ED000A022102F0FBFD0023B9
:104650002B6002F00DF8CBF800005248524D01F0EB
:1046600079FF0028286006DB40F0F48002F0F2FFBA
:104670004E4902F0DCFC4E48474E4E4F00F0ACFB7A
:104680004B48002100F01BFF4948012100F00DFFBD
:104690004748012100F00EFF00221146444800F077
:1046A00001FF224644494248FFF732FD019B18684A
:1046B00005F0B0F902460B463D484049FFF728FD9A
:1046C000039B186805F0A6F902460B4638483C499A
:1046D000FFF71EFD029B186805F09CF90B46024689
:1046E00038493348FFF714FD2A6837493048FFF747
:1046F0000FFD306805F08EF90B46024633492C4811
:10470000FFF706FD2A4800F0DFFB01F0B1FF3B6830
:10471000834280F098802E4800F063FF002800F06C
:1047200092805BE0AFF30080CDCCCCCCCCCCFC3F16
:104730004A0C022BC774AA40000000000000084089
:104740009A9999999999F13F6666666666660E40F0
:10475000D7A3703D0AD7E33F38E6032020E50320C6
:104760000080544522AB0D0028E60320F8E5032025
:104770001CE503204CE4032024E603200000404015
:10478000FCE50320F0E4032054DF032010E60320BF
:104790000000244030AB0D00F4E40320000002448C
:1047A0003AAB0D0030E4032050DF03203CAB0D009A
:1047B000CCE403200CE6032089AB0D009CAB0D007C
:1047C000AFAB0D00BFAB0D00CFAB0D00E0AB0D00EC
:1047D00024E5032004E5032020E60320039B18685A
:1047E00005F018F941EC100B0221244801F002FAFF
:1047F000306805F00FF941EC100B0221204801F060
:10480000F9F921461F4801F0E6F9029B186805F006
:1048100001F941EC100B02211B4801F0EBF929686A
:104820001A4801F0D8F9019B186805F0F3F841EC3B
:10483000100B0221164801F0DDF901F019FF00F517
:10484000EA403030386005B0BDEC048BBDE8F08F35
:1048500021460EE6012803D102F0FCFE0D4908E7CF
:10486000022803D102F0F6FE0B4902E703287FF489
:1048700002AF02F0EFFE0949FBE600BF08E50320A6
:10488000F8E4032014E6032000E6032024E40320D8
:104890002CE6032060AB0D0070AB0D007FAB0D006C
:1048A00010B52421044603F09CFC204610BD10B531
:1048B000D421044603F095FC204610BDF7B5404FC7
:1048C000404C414D414E3946204602F044FB2046C3
:1048D0003F4C2A46314603F07FFC3946204602F021
:1048E0003AFB2A46314620463A4C3B4E03F074FCD4
:1048F00011213A4801F010FE0421204600F056FA3A
:104900002A463749204603F067FC3648364C01F00A
:10491000CDF9304603F06EFA2A463449304603F0AA
:104920005BFC334B00933349334B40F25B722046C0
:1049300000F08CFE314B2360C4F8D0602A46304929
:10494000204603F049FC21462E4A2F48002301F05F
:104950006DF921462D4A2E48002301F037F92146F2
:104960002C4A2D48002301F031F921462B4A2C48CE
:10497000002301F02BF921462A4A2B48002301F09D
:1049800025F92146294A2A48002301F01FF921462A
:10499000284A294C2948002301F018F900232360F4
:1049A000A380A371A3F58033A360022001F0F8FF78
:1049B00023492A46204603B0BDE8F04003F00CBC72
:1049C0009BAA0D00DCE30320D8E30320C16E0D0099
:1049D00014E40320CCE40320F8E3032030E40320B4
:1049E000C9400D004CE4032024E50320CD400D0018
:1049F00004AC0D00F4AB0D00E9AB0D0064B20D008A
:104A0000CB400D0025AC0D0090E4032042AC0D001E
:104A100008E503205CAC0D00F8E403207FAC0D003A
:104A200014E603209DAC0D0000E60320B7AC0D009A
:104A300024E40320D3AC0D00ECE303202CE6032098
:104A400001410D00F0B5457EBDF81440022D67D040
:104A5000032D00F09780012D6AD10589D2432A44A5
:104A600012B2002A5BDBB0F90850954257DD0029ED
:104A7000BEBF5B181BB20021B0F90A00CD188542F9
:104A8000C4BF431A1BB2002B49DDC1F3C400DFF8D9
:104A90001CC102EBC01211F00701DBB20CEB0200EB
:104AA0001AD0C1F108053F4EEDB2AB42775D3FBF72
:104AB000A5EB030EFF2646FA0EF637401CF80260FF
:104AC000012C0CBF3E43BE43AB420CF8026026D320
:104AD00008390B44DBB28030072B17D9012C0CBFEF
:104AE000FF25002500F180011A46083AD2B2072AB4
:104AF00001F8805C01F18001F7D8A3F10802C2F34C
:104B0000C402013200EBC21003F007033BB1264A96
:104B1000D25C0378012C0CBF134393430370F0BDA8
:104B20004589D2432A44CD180189491B12B209B2E2
:104B3000002AF4DBB0F90A509542F0DD0029BEBF2F
:104B40005B181BB20021B0F90870CE18BE42C4BF7A
:104B50006B1A1BB2002BE2DDD010802510FB051173
:104B60001248084402F0070101228A40012CD2B207
:104B700003440CD18342D2D010F8014B144300F807
:104B8000014CF7E7CD184189491B09B269E7D243C7
:104B9000D2B28342C3D010F8014B144000F8014C4C
:104BA000F7E700BF60DF032058DF032068DF032042
:104BB000F0B5457EBDF81440022D34D0032D00F031
:104BC0009980012D37D1D5180289521B12B20029C4
:104BD000C0F28F80B0F90A508D4240F38A80002ADB
:104BE000BEBF9B181BB20022B0F90870D618BE4297
:104BF000C4BFAB1A1BB2002B7BDDC810802510FB95
:104C000005224448104401F0070201219140012C83
:104C1000C9B2034473D198426BD010F8014B0C43D6
:104C200000F8014CF7E70589C9432944D5184289A2
:104C3000521B09B212B200295BDBB0F908508D4259
:104C400057DD002ABEBF9B181BB20022B0F90A0034
:104C5000D5188542C4BF831A1BB2002B49DDC2F3AD
:104C6000C400DFF8B0C001EBC01112F00702DBB2E4
:104C70000CEB01001AD0C2F10805274EEDB2AB4291
:104C8000775D3FBFA5EB030EFF2646FA0EF63740D1
:104C90001CF80160012C0CBF3E43BE43AB420CF834
:104CA000016026D3083A1344DBB28030072B17D9B2
:104CB000012C0CBFFF25002500F180011A46083A9F
:104CC000D2B2072A01F8805C01F18001F7D8A3F184
:104CD0000802C2F3C402013200EBC21003F0070362
:104CE0003BB10E4AD25C0378012C0CBF13439343B3
:104CF0000370F0BD4589C943294409B267E7C94338
:104D0000C9B29842F5D010F8014B0C4000F8014CA4
:104D1000F7E700BF68DF032060DF032058DF0320D0
:104D2000F8B50D1E064614461F462DDB00F0D5FBD8
:104D3000A84229DD002C27DB304600F0D1FBA04241
:104D400022DD304600F0B9FB02281ED0032825D012
:104D5000012804D13289E44322442C4615B2002CA8
:104D60002146B8BFE11DC910802311FB03550E4930
:104D7000012204F007044B5702FA04F464B297428C
:104D80000CBF2343A3434B55F8BD318972890139C8
:104D9000E4434D1B14442DB224B2E0E77389013B78
:104DA0005B1B25461CB2DAE768DF032038B54022DA
:104DB00004460D46802100F0A7FA064B2360FF232E
:104DC00084F8213063774FF6FF73E38384F8205033
:104DD000204638BDF8AC0D0002484FF48062002137
:104DE00005F0FCBC68DF032013B50B4C2178BFF342
:104DF0005B8F11F001010BD120460191FFF75CF9A7
:104E0000019928B1054801F0D3FE2046FFF759F972
:104E1000024802B010BD00BF3CE6032040E603207C
:104E200007B590F8223043B10191FFF7DDFF0199FA
:104E300003B05DF804EB01F0DBBF0B46817F407FE0
:104E4000012203B05DF804EB03F060B938B590F9C6
:104E50001D30013304460D461DD090F9210001217B
:104E600080B203F010F994F91F00002180B203F022
:104E70000AF994F92100002180B203F004F92946CF
:104E80002046FFF7CDFF94F921000121BDE838400D
:104E900080B203F0F8B803F077F994F91B1002F030
:104EA000F5FC03F071F9036800219B68984703F053
:104EB0006BF9036829469B68984703F065F9BDE8DC
:104EC000384002F0EABC0000F8B521210446FFF7A3
:104ED000BDFF00212046FFF7B9FF7F212046FFF7E5
:104EE000B5FF22212046FFF7B1FF00212046FFF742
:104EF000ADFF07212046FFF7A9FF94F91D30294F88
:104F000001332AD094F92100012180B203F0BBF8CB
:104F100094F91F00012180B203F0B5F894F9210043
:104F2000002180B203F0AFF8012001F099FB4FF4AB
:104F30008065013D17F8011B2046ADB2FFF770FFF9
:104F4000002DF6D1012001F08BFB94F92100012105
:104F5000BDE8F84080B203F096B8102603F014F9CB
:104F600094F91B1002F092FC03F00EF90368A6F10D
:104F700010059B684021ADB2984703F005F903681E
:104F8000795D9B680135ADB29847AE42F5D103F02B
:104F9000FBF802F082FC06F110039EB2B6F5826FB8
:104FA000DCD1F8BD68DF032038B590F91D300177FA
:104FB000013304460D46C27600F0C98090F91F0007
:104FC000012180B203F04EF894F92100012180B252
:104FD00003F048F894F82230002B00F0A68094F9F2
:104FE0002100012180B203F04EF8FFF7FDFE012100
:104FF00001F0F9FDFFF7F8FE102101F0D3FEFFF7F5
:10500000F3FE002101F002FEFFF7EEFE01F0DAFDF3
:1050100094F92000012180B203F024F894F92000D3
:10502000012180B203F02FF8012002F07DF994F9FC
:105030002000002180B203F026F80A2002F074F963
:1050400094F92000012180B203F01DF82046AE2122
:10505000FFF7FCFE2046D521FFF7F8FE2046802111
:10506000FFF7F4FE2046A821FFF7F0FE20463F217F
:10507000FFF7ECFE2046D321FFF7E8FE2046002193
:10508000FFF7E4FE20464021FFF7E0FE8D21204699
:10509000FFF7DCFE012D0CBF102114212046FFF785
:1050A000D5FE20462021FFF7D1FE20460021FFF744
:1050B000CDFE2046A121FFF7C9FE2046C821FFF7FB
:1050C000C5FE2046DA21FFF7C1FE20461221FFF778
:1050D000BDFE81212046FFF7B9FE012D0CBF9F21A7
:1050E000CF212046FFF7B2FED9212046FFF7AEFEC2
:1050F000012D0CBF2221F1212046FFF7A7FE2046FB
:10510000DB21FFF7A3FE20464021FFF79FFE20464C
:10511000A421FFF79BFE2046A621FFF797FE20461D
:10512000AF21BDE83840FFF791BE94F91D00012181
:1051300080B202F097FF94F91E00012180B202F0C4
:1051400091FF94F82230002B3FF462AF47E703F061
:105150001BF802F065FB5BE72DE9F04F85B01F46B9
:10516000BDF93880BDF83C30A8EB0209A7EB010A75
:10517000B9F1000FB8BFC9F10009BAF1000FB8BF0B
:10518000CAF1000AD14583460C46154604DD3A466D
:105190002C4647460D469046BC4205DD2A4645460C
:1051A000904622463C4617463E1BB2B20092A8EB00
:1051B0000502002AB8BF52420192C6F3C03202FA79
:1051C00086F64545B4BF01224FF0FF3276100292B9
:1051D000BC421CDCDBF800200393D145D2F81080E0
:1051E000C7BF294622462A4621465846C047019A4B
:1051F000039BB61AB1B236B2002E05DA029A1544F4
:10520000009A56182DB236B2013424B2E0E705B048
:10521000BDE8F08F2DE9F347BDF82C800768BDF994
:105220002890CDF800800446FF6916468A461D4640
:10523000B8472368CDF8008009F1FF323244DF69B6
:1052400051462B46204612B2B8472368CDF800805D
:105250009F6932464B4651462046B8476B1E03EBCA
:105260000A012368CDF828809D6932464B4609B271
:105270002046AC4602B0BDE8F047604737B5013B79
:1052800013440468BDF8185001951BB2009364697B
:105290000B46A04703B030BD37B5BDF818500468C1
:1052A000CDE90025013B0B4464691BB2A04703B064
:1052B00030BD2DE9F347BDF92890BDF82C80054697
:1052C00092460C46CE18B4420BDA2B68CDF800801B
:1052D0009F6921464B46524628460134B84724B2BE
:1052E000F1E702B0BDE8F08713B502680191B0F9AB
:1052F0000E100091546AB0F90C3000221146A047FC
:1053000002B010BD7047000030B54281C2814FF03D
:10531000FF320024054D4261012244600560018195
:10532000818104610283827630BD00BF2CB20D0002
:105330002DE9F04F2DED028B8BB006460391BDF8A1
:1053400058100591BDF85C100691B0F90C10039847
:105350009DF86050814251DDB6F90E1091424DDD4D
:10536000062111FB0504002C48DD02EBC504002CCE
:1053700044DD03EB8303099393B207910024049364
:10538000052C1CBF2D4B099A049F16BF1B19002327
:105390009B5C0293039AABB2089304FB05F313FAE8
:1053A00082F31BB204EB020A08EE103A4FF0000839
:1053B0000FFA85F90FFA8AFA029BDB072FD5012D28
:1053C000336820D1049AD3F810B0059B424412B23E
:1053D00051463046D847029B5B080293089B08F170
:1053E00001081F44B8F1080FBFB2E5D1079B013B8C
:1053F000013413F0FF0364B20793C1D10BB0BDECCD
:10540000028BBDE8F08F059ACDE9009218EE101AD4
:10541000D3F824B03AB24B463046D847DBE7DDE953
:1054200005239342D7D0012D336805D1049AD3F8D0
:1054300010B0069B4244CAE7069AE5E728AD0D0086
:1054400030B50A2985B0044607D1027E638A03EB92
:10545000C20363820023238221E00D291FD0037E33
:105460000293C38A0193838A0093B0F912200B46FA
:10547000B0F91010FFF75CFF217E238A01EB410099
:1054800003EB4003A07E1BB20A46238238B1B4F975
:105490000C006FF0050505FB01018B42D6DC0120F5
:1054A00005B030BD018242827047012938BF012119
:1054B00001767047C18281827047407E704701F05B
:1054C0000303B0F90A204376C907B0F9083059BF81
:1054D0008381C2818281C3817047B0F90C0070471B
:1054E000B0F90E00704708B5D0F8D00003681B6B08
:1054F0009847003818BF012008BDF8B506460F468A
:105500001446C4B1D6F8D00003681B6B984708B99D
:105510000020F8BDD6F8D000FA2C03682546A8BFB5
:10552000FA25DB682A463946984783B2E41A9D4239
:10553000A4B2E6D0ECE70120EBE72DE9F8430646FC
:10554000884691461F461D460024D6F8D0000368C1
:105550001B6B9847D0B1002D18DBD6F8D00003683C
:105560001B69984760B1D6F8D00003685B6998471B
:1055700008F804000134A4B24C4507D03D46ECE7DE
:105580000A3D0A202DB201F0CFFEDEE72046BDE83D
:10559000F88370B5044600F12205962200212846C2
:1055A00005F01CF96168284605F04EF9D4F8D000E2
:1055B0002289036829465E6A0023B047003818BF75
:1055C000012070BD10B50446D0F8D00003681B6BF5
:1055D000984720B1D4F8D0000368DB6A98470120CF
:1055E00010BD70B503689B6804469847C8B920464B
:1055F00000F095FA042570B1013D15F0FF050AD0C1
:10560000204600F0B7F841F2883001F08DFE2046C8
:1056100000F085FAEFE7236820469B68BDE87040FC
:10562000184770BD37B504460846019105F014F9D6
:1056300003122370607085B2023401992A46204615
:1056400005F034F9601903B030BD000030B50281B7
:105650000A4A0B4DC0E90323039B43610023C0E9C1
:105660000051C0E92F33C0E93133C0E90633C0F837
:10567000CC300384A0F8B83030BD00BF9BAA0D0029
:1056800070B40D002DE9F74F164602681BB29769FA
:105690000193012205460C46B847C7B2012F019B72
:1056A00003D0002003B0BDE8F08F04F1010804F13D
:1056B000040A4FF000092A680193D2F818B0414655
:1056C00001222846D847C0B20128EAD1C2454FEA94
:1056D000C710E6D018F8012B019B02F07F0112F0F1
:1056E000800F01FB079916D1A8EB0404A7B2341B65
:1056F0002A68013C4C45D2F818A03DBF06F1FF32A4
:10570000D21B92B21FFA89F241462846D047C0B256
:10571000384480B2C6E70746CDE700002DE9F041E6
:10572000DFF8308005460C4616461F463B4696225B
:1057300021462846FFF7A6FF48B12378B6EB131F92
:1057400005D001F087FF414601F071FCEEE7BDE8AE
:10575000F08100BF80B20D000231C9B209299ABFA1
:10576000024B53F821000248704700BF8CB40D0073
:1057700091B20D0010B5E02380F8223001460023DD
:1057800080F8233051F8223B04465B690222984797
:10579000236820461B69BDE81040184700F1BC0291
:1057A00030B5134600F1D00453F8045B8D4209D0A4
:1057B000A342F9D1002352F8044B2CB900EB83002B
:1057C000C0F8BC10012003E00133052BF3D1002009
:1057D00030BD2DE9F04F00F122098BB285B0962241
:1057E00049460546FFF74EFF0646F0B195F825708D
:1057F000009705F1BC0A4FF0000805F1260B5AF896
:10580000044B6CB121680191084605F025F8B842B7
:1058100006D101993A46584605F026F8002845D0A9
:1058200008F10108B8F1050FE9D100203BE0EA19C1
:1058300092F8260092F827A04AEA002A14220021B2
:10584000601D04F0CBFF009BC3F57F44FC3426446D
:1058500005EB8808A6EB0B06B6B2152ED8F8BC00EF
:1058600007F1040128BF1326594432464944053044
:1058700004F09AFFD8F8BC305E8395F8223003F02C
:105880000603022B0DD14FF41073ADF80C302B68CA
:105890009AFA9AFA5B69ADF80EA0042203A9284689
:1058A0009847D8F8BC0005B0BDE8F08F95F822B055
:1058B0000BF0060BBBF1020FB9D082468346BDE761
:1058C0002DE9F84304460D464FF0000800F1220789
:1058D0004FF0C009E5B1236884F8229084F8238052
:1058E0005B690222394620469847064668B14FF464
:1058F000FA730D2239462046FFF710FF94F8223044
:10590000D02B02D13046BDE8F883013DEDB2E1E78E
:105910002E46F7E738B505460846102300F8023B47
:105920000C462949FFF77EFE0423037002234370CF
:10593000AB698BB11B787BB10623437095F820309F
:10594000012B39D10E23437095F82130012B02BF72
:10595000437843F0200343702B691B781BB14378D5
:1059600063F07F0343706B691B781BB1437843F08E
:1059700040034370012383702C23C370E9680B78C4
:10598000F3B10430FFF74EFEA96931B10B7823B1B2
:10599000FFF748FEE969FFF745FE29690B780BB16F
:1059A000FFF740FE69690B780BB1FFF73BFE001B68
:1059B000C0B2831E637038BD022BC5D11E23C2E75F
:1059C000037143710630DFE79FB20D002DE9F74305
:1059D000054610460E469846019204F03DFF9DF89C
:1059E0002C90BDF82870019984B2B9F1000F35D11F
:1059F00002344FEA49033046A4B243F030033C443A
:105A000000F8013BA4B2224604F07F037F2A88BF3E
:105A100043F080037F2A00F8013B4FEAD414F2D808
:105A2000FFF700FE0346B9F1000F0CD0B5F8B8201F
:105A3000120A0270B5F8B8204270B5F8B8200132E9
:105A40000233A5F8B8203A464146184604F0ACFEA9
:105A50003844801B80B203B0BDE8F0830434C8E74B
:105A600073B59DF8186000F122050446CDE90036B3
:105A700013460A462946FFF7A9FF236802465B69D9
:105A800029462046984710B9002002B070BD002E6C
:105A9000FBD04FF4FA73962229462046FFF7F2FD19
:105AA0000428F1D194F822301B11042BECD1A38CE3
:105AB000B4F8B8005BBA01339BB2C31A58425841DC
:105AC000E3E730B585B0044610461D4603910292C7
:105AD00004F0C2FEDDE9022183B200952046FFF703
:105AE000BFFF05B030BD38B51D4682230B70B0F83E
:105AF000B8301B0A8B70B0F8B830CB70B0F8B83043
:105B00000C460133A0F8B8301146201DFFF78AFD7E
:105B100000F8015B001BC0B2831E637038BD2DE925
:105B2000F0410368DB680446984700284BD004F135
:105B3000220529462046FFF7EDFE236882B25B6905
:105B400029462046984700283DD041F2707396229E
:105B500029462046FFF796FDC0B2042833D1638C56
:105B6000B3F5087F2FD194F8250010B140B2BDE8FD
:105B7000F08104F1BC0704F1D00857F8043BF3B1FD
:105B8000032657F8042C2946137912682046FFF79C
:105B9000AAFF236882B25B6929462046984790B1E4
:105BA0004FF4FA73092229462046FFF7B7FD30B9B2
:105BB000013E16F0FF06E4D16FF00100D7E7B845CB
:105BC000DBD10020D3E74FF0FF30D0E710B5C0E9BC
:105BD0000012037210BD1FB504460A22084601A92F
:105BE00001F02AF9D4E90001237A01AAFFF769FF3D
:105BF00004B010BDD0B557EC106B90B004460B4606
:105C000000220949684600F06FFF32463B4669466C
:105C100005A800F069FFD4E90001237A05AAFFF77F
:105C200050FF10B0D0BD00BFA4B20D0010B503717D
:105C30000023C0E90833C0E90A33416302604383AB
:105C4000C361036310BD704710B51021044602F014
:105C5000C8FA204610BD000073B5044608462279F4
:105C6000A36832B1A3B90B4902B0BDE8704001F09E
:105C7000CBB9094A267B094D0949647B012E18BF1F
:105C80002946CDE900140749FEF742FA02B070BD7B
:105C9000054AEFE7C5B40D009BAA0D00C1B40D0085
:105CA000BDB40D00DBB40D00B4B40D004FF0FF33F4
:105CB000036170472DE9F04190F913300133054637
:105CC0000F4606D1FFF790F83946BDE8F04101F0E4
:105CD0008FB8002407264FF0010895F91300002122
:105CE00080B202F0D0F995F9110008FA06F13940B6
:105CF00080B202F0C8F995F91300012180B202F0D8
:105D0000C2F995F91200640080B2E4B202F0D4F94D
:105D100008B144F00104013EDFD22046BDE8F08125
:105D200008B5FFF761F8BDE8084000F082BF07B58D
:105D30000190FFF759F8019903B05DF804EB00F00A
:105D400091BF000030B590F91030013385B00446A2
:105D50000D4623D10179006801F094FD20680368A5
:105D600029469B689847206801F097FD21792068B3
:105D7000032201F084FD206803685B6998470502EF
:105D8000206803685B699847284305022068036818
:105D90005B6998470543284605B030BD90F913303C
:105DA00001330CD11A4B009300238DF80430194BAA
:105DB000029368460123ADF80C30FFF7B8FF94F961
:105DC0001000002180B202F05EF945F0800120460B
:105DD000FFF770FF00212046FFF76CFF002105024E
:105DE0002046FFF767FF2843050200212046FFF702
:105DF00061FF054394F91000012180B202F043F9DC
:105E000094F913300133C6D1FFF78AFFC3E700BF0F
:105E100000B50D0020A1070010B5FA210446FFF7D8
:105E200091FFB0F5000F1ED0A18A9FED107A4B00B4
:105E3000C1EB2022C3EBE011B4F9163052435943B1
:105E4000B4F91830121353439B1303EBE123E360BF
:105E500003EB830380331B1207EE903AF8EEE77AE8
:105E600087EE870A10BD9FED020AFBE70000C842DB
:105E70000000C07F2DE9F8430446FFF7CDFFF7216E
:105E80002046FFF75FFFB0F5000F054600F0BF802A
:105E9000E068B4F91C60B0F5FA334FEAE07141F103
:105EA000FF32A3FB038903FB02F109EB4109F7175A
:105EB00006FB02F103FB0711A6FB03670F4439033E
:105EC00041EA16513003B4F91E60F71706FB09FCCE
:105ED00008FB07CCA6FB086767444FEA162C4CEA80
:105EE000076C668B4FEA272E1CEB00004EEB010E71
:105EF00000304EF5004EA0FB060106FB0E114E10C1
:105F0000CF1756EA070100F08580B4F9240000FBA2
:105F100009FCC11708FB01CCA0FB0801B4F92280E1
:105F20004FEAE87908FB02F203FB0922A8FB038988
:105F3000914461444FEA48424FEA494C2D111218EE
:105F4000C5F580154CEAD83CB4F920804CEB010C27
:105F50000023E9179B184FEAC17E4FEAC5704FEA4C
:105F6000C80141EB0C0C4EEA550EC01A40F6354301
:105F70006EEB0C0EA0FB030103FB0E1132463B46F9
:105F800004F0F6F9B4F92A204D13460B46EAC1464F
:105F900002FB05F7D31706FB0377A2FB06233B445E
:105FA000554306FB0355A2FB06232B44550E45EA39
:105FB000C315B4F92820B4F926402D184FEA6366BA
:105FC00041EB0606D317514300FB0311A2FB00234C
:105FD0000B44D10C41EA43316D184FEAE34046EBE4
:105FE00000032A0AE51742EA0362191220012B0175
:105FF00043EA1473801843EB010104F07BF99FED31
:10600000070A07EE900A27EE800ABDE8F8839FEDA5
:10601000040AFAE79FED030AF7E700BF0000803BA0
:106020000000C07F0000000030B590F9103001334F
:1060300085B004460D461FD10179006801F022FCAD
:106040002068036829469B689847206801F025FC72
:1060500021792068022201F012FC206803685B6944
:1060600098470546206803685B69984740EA052021
:1060700085B2284605B030BD90F9133001330CD1FC
:10608000184B009300238DF80430174B0293684699
:106090000123ADF80C30FFF74AFE94F910000021FF
:1060A00080B201F0F0FF45F080012046FFF702FECC
:1060B00000212046FFF7FEFD002105462046FFF7A0
:1060C000F9FD40EA052085B294F91000012180B263
:1060D00001F0D9FF94F913300133CAD1FFF720FE44
:1060E000C7E700BF00B50D0020A1070008B5FFF706
:1060F0009BFF40BA80B208BD38B50446FFF78CFE5E
:10610000FD212046FFF790FFB0F5004F38D0B4F9DD
:106110003250E268B4F934302D05A2F59632C5EB61
:10612000803002FB130303F58043D91394F8303019
:106130005343DB1203F5004094F9363053439B126E
:1061400043439B1203F50012B4F92E30534303F579
:1061500000539B134B43DA1394F82C105243D21183
:106160004A43A3EB221323EAE373B3F1C85FA8BF4A
:106170004FF0C8531B1300EE103ABAEECB0A38BDED
:106180009FED010AFBE700BF0000C07F30B590F92A
:106190001030013385B004460D4618D101790068EE
:1061A00001F070FB2068036829469B6898472068C7
:1061B00001F073FB21792068012201F060FB206867
:1061C00003685B699847C5B2284605B030BD90F9B1
:1061D000133001330CD1154B009300238DF804309C
:1061E000134B029368460123ADF80C30FFF79FFD77
:1061F00094F91000002180B201F045FF45F08001C4
:106200002046FFF757FD00212046FFF753FD0546C6
:1062100094F91000012180B201F035FF94F9133098
:106220000133D1D1FFF77CFDCEE700BF00B50D00F3
:1062300020A1070008B5F321FFF7A8FF00F0010037
:1062400008BD38B588210446FFF750FF8A21A08297
:106250002046FFF74BFF8C21E0822046FFF746FFE8
:106260008E2120832046FFF741FF90216083204646
:10627000FFF73CFF9221A0832046FFF737FF9421D0
:10628000E0832046FFF732FF962120842046FFF767
:106290002DFF982160842046FFF728FF9A21A084D3
:1062A0002046FFF723FF9C21E0842046FFF71EFFD6
:1062B0009E2120852046FFF719FFA12160852046F9
:1062C000FFF764FFE12184F82C002046FFF70EFF62
:1062D000E321E0852046FFF759FFE42184F83000F0
:1062E0002046FFF753FFE52105462046FFF74EFF06
:1062F00000F00F0343EA05106086E6212046FFF711
:1063000045FFE52105462046FFF740FF031143EA1C
:106310000510A086E7212046FFF738FF84F83600F5
:1063200038BD00007FB590F91030013304460E46A9
:10633000154612D10179006801F0A4FA20680368BB
:1063400031469B6898472068036829469B689847B0
:10635000206801F0A2FA04B070BD90F91330013347
:106360000CD1144B009300238DF80430124B029390
:1063700068460123ADF80C30FFF7D9FC94F9100002
:10638000002180B201F07FFE06F07F012046FFF77A
:1063900091FC29462046FFF78DFC94F9100001215D
:1063A00080B201F070FE94F913300133D3D1FFF7BE
:1063B000B7FCD0E700B50D0020A10700F8B5DB0061
:1063C00002F0070203F03803134343EA81139DF8F8
:1063D000186080F83C3090F840309DF81C509DF8D3
:1063E000207066F3471380F84030ED0090F83830A5
:1063F00007F0070705F0380523F03F033D43044647
:106400001D4380F8385006F00702F221FFF78AFF9B
:1064100094F83820C2F3C20302F007019B0043EA5C
:10642000411343EAD2122046F521FFF77BFF94F88F
:106430003C20C2F3C20302F007019B0043EA411370
:1064400043EA92122046F421BDE8F840FFF76ABF04
:1064500030B5044690F91000421C85B019D120686F
:1064600001F0DEF9D0212046FFF790FE6028A06001
:1064700045D12046B622E021FFF754FF4FF4967035
:1064800000F052FF2046FFF7D5FE054628B36420F2
:10649000F6E7012180B201F0F6FD94F91000012128
:1064A00080B201F0DFFD94F91300431C04D1FEF724
:1064B0009BFC00F087FBD5E7012180B201F0D2FD03
:1064C00094F91100012180B201F0CCFD94F9120081
:1064D000002180B201F0C6FDC4E72046FFF7B1FEFF
:1064E000052300931A4603212046CDE90155FFF705
:1064F00065FF642000F018FF012005B030BD0020CA
:10650000FBE710B50171044601F03EFE2060204615
:10651000BDE81040FFF79CBF0022C0E904220160E3
:106520007047000010B5044600F0A2F8A369C01A35
:10653000074B98420AD9D4E9043293FBF2F3E360A3
:1065400000F096F80023C4E90433A06110BD00BF39
:1065500020A1070010B5836843600446008801F05D
:10656000BEFD2369A0601844636920610133636143
:106570002046FFF7D7FFD4E90112511AB1F5C87FC1
:1065800010DCB2F52F7F0DDCE368D31A962B0BDC01
:10659000C82902DDB2F52F7F08D1322BCCBF0220F3
:1065A000032010BD0020FCE70120FAE70220F8E7F5
:1065B00008B5024B1B689B68019308BD6802030085
:1065C00008B5024B1B68DB68019308BD6802030035
:1065D00008B5024B1B685B68019308BD2C020300E1
:1065E00008B5024B1B689B68019308BD2C02030091
:1065F00008B5024B1B68DB68019308BD2C02030041
:1066000008B5024B1B681B69019308BD2C020300EF
:1066100008B5024B1B685B69019308BD2C0203009F
:1066200008B5024B1B681B6B019308BD2C020300CD
:1066300008B5024B1B68DB6C019308BD2C020300FC
:1066400008B5024B1B685B69019308BD6C0203002F
:1066500008B5024B1B685B68019308BD1802030074
:1066600008B5024B1B68DB68019308BD18020300E4
:1066700008B5024B1B685B69019308BD1802030053
:1066800008B5024B1B685B6C019308BD4802030010
:1066900008B5024B1B689B6C019308BD48020300C0
:1066A00008B5024B1B685B69019308BD64020300D7
:1066B00008B5024B1B681B6A019308BD6402030006
:1066C00008B5024B1B689B6A019308BD6402030076
:1066D00008B5024B1B681B68019308BD3C02030010
:1066E00008B5024B1B68DB68019308BD3C02030040
:1066F00008B5024B1B681B69019308BD3C020300EF
:1067000008B5024B1B685B69019308BD3C0203009E
:1067100008B5024B1B689B69019308BD3C0203004E
:1067200008B5024B1B68DB69019308BD3C020300FE
:1067300008B5024B1B681B6A019308BD3C020300AD
:1067400008B5024B1B689B6A019308BD3C0203001D
:1067500008B5024B1B68DB68019308BD28020300E3
:1067600008B5024B1B689B69019308BD2802030012
:1067700008B5024B1B68DB69019308BD28020300C2
:1067800008B5024B1B681B6A019308BD2802030071
:1067900008B5024B1B685B6A019308BD2802030021
:1067A00008B5024B1B689B6A019308BD28020300D1
:1067B00008B5024B1B68DB6A019308BD2802030081
:1067C00008B5024B1B681B6B019308BD2802030030
:1067D00008B5024B1B685B6B019308BD28020300E0
:1067E00008B5024B1B681B6C019308BD280203000F
:1067F00008B5024B1B681B6D019308BD28020300FE
:1068000008B5024B1B689B69019308BD3802030061
:1068100008B5024B1B68DB69019308BD3802030011
:1068200008B5024B1B681B6A019308BD38020300C0
:1068300008B5024B1B689B6A019308BD3802030030
:1068400008B5024B1B681B6B019308BD380203009F
:1068500008B5024B1B689B6B019308BD380203000F
:1068600008B5024B1B681B68019308BD300203008A
:1068700008B5024B1B689B68019308BD30020300FA
:1068800008B5024B1B68DB68019308BD30020300AA
:1068900008B5024B1B681B69019308BD3002030059
:1068A00008B5024B1B685B69019308BD3002030009
:1068B00008B5024B1B68DB69019308BD3002030079
:1068C00008B5024B1B681B6A019308BD3002030028
:1068D00008B5024B1B685B6A019308BD30020300D8
:1068E00008B5024B1B68DB6B019308BD3002030047
:1068F00008B5024B1B681B6C019308BD30020300F6
:1069000008B5024B1B685B6C019308BD30020300A5
:1069100008B5024B1B681B68019308BD4C020300BD
:1069200008B5024B1B685B68019308BD4C0203006D
:1069300008B5024B1B681B69019308BD4C0203009C
:1069400008B5024B1B685B69019308BD4C0203004C
:1069500008B5024B1B689B69019308BD4C020300FC
:1069600008B5024B1B68DB69019308BD4C020300AC
:1069700008B5024B1B681B6A019308BD4C0203005B
:1069800008B5024B1B685B6B019308BD60020300F6
:1069900008B5024B1B681B6D019308BD6002030024
:1069A00008B5024B1B685B68019308BD2002030019
:1069B00008B5024B1B685B69019308BD2002030008
:1069C00008B5034B1B68D3F88830019308BD00005D
:1069D0002002030008B5034B1B68D3F894300193E1
:1069E00008BD00002002030008B5024B1B685B686D
:1069F000019308BD4002030008B5024B1B689B6869
:106A0000019308BD4002030008B5024B1B68DB6818
:106A1000019308BD4002030008B5024B1B681B69C7
:106A2000019308BD4002030008B5024B1B685B6977
:106A3000019308BD4002030008B5024B1B689B6927
:106A4000019308BD4002030008B5024B1B68DB69D7
:106A5000019308BD4002030008B5024B1B681B6A86
:106A6000019308BD4002030008B5024B1B681B6B75
:106A7000019308BD4002030008B5024B1B685B6B25
:106A8000019308BD4002030008B5024B1B685B6917
:106A9000019308BD4402030008B5024B1B68DB6A82
:106AA000019308BD4402030008B5024B1B68DB6B71
:106AB000019308BD4402030008B5024B1B681B6824
:106AC000019308BD1C02030008B5024B1B685B68FC
:106AD000019308BD1C02030008B5024B1B689B68AC
:106AE000019308BD1C02030008B5024B1B68DB685C
:106AF000019308BD1C02030008B5024B1B685B6ACA
:106B0000019308BD1C02030008B5024B1B68DB6B38
:106B1000019308BD1C02030008B5024B1B685B6CA7
:106B2000019308BD1C020300002240681146FFF7D4
:106B300093BF002240681146FFF79EBF40680022C5
:106B4000FFF792BF4068002281F00101FFF77CBF90
:106B5000002340681A461946FFF76EBF00234068BD
:106B60001A461946FFF760BF002240681146FFF73A
:106B700053BF002240681146FFF73EBF4068002225
:106B80000221FFF741BF002340681A46FFF72CBFE0
:106B9000024B03225A60024A1A60704748E60320FB
:106BA00014B50D000021FFF7A3BE0021FFF7A8BE1A
:106BB00010B5044608462170FFF77AFE0023636093
:106BC000204610BD10B504460078FFF7EBFF48B92A
:106BD00020784FF6FF71FFF743FE2078BDE81040A4
:106BE000FFF7E3BF10BD13B5044600780191FFF72E
:106BF000D9FF019940B92078FFF73AFE207802B01A
:106C0000BDE81040FFF7D1BF02B010BD13B5044678
:106C100000780191FFF7C6FF019940B92078FFF78E
:106C20002FFE207802B0BDE81040FFF7BEBF02B0D3
:106C300010BD0078FFF7B9BF400830B518600024D8
:106C400018688842E5B206D90134082C02D0400801
:106C50001860F5E70725024B5B5D137030BD00BF80
:106C600040B50D002DE9F04306468FB000780D4683
:106C7000FFF798FF00281BDB34781422002109A8B5
:106C800003F0ACFD0B23002209A92046ADF8243007
:106C9000FFF71EFE9DF82D3013B19DF82C4054B126
:106CA0000027B946B84601242B795CB1C3B1002056
:106CB0000FB0BDE8F083DDF830809DF834909DF88A
:106CC0003570F1E7002B35D1AB68434508D18DF81D
:106CD00020908DF82170BDF82020AB899A42E6D033
:106CE0000023A9688DF80F300A9804AB0DF10F024C
:106CF000FFF7A2FF297984B989B9AB6843450ED360
:106D00008DF820908DF82170BDF82020AB899A4233
:106D100005D1049B434502D1C9E70029F9D10023DD
:106D200001936B7B00939DF80F202B7B3078FFF74E
:106D3000D7FDBCE7CDE90044234622460121F5E713
:106D40002DE9F04188B000230446007802930E46F6
:106D50001746FFF727FF054600BB94F80080014661
:106D6000142203A803F03AFD0B232A4603A9404648
:106D7000ADF80C30FFF7ACFD04988DF8075002AB6E
:106D80000DF1070207FB06F1FFF756FF20789DF88B
:106D90000710FFF77DFD2078FFF707FF029808B086
:106DA000BDE8F08138B5044600780D46FFF7FAFEDD
:106DB0000346D0B9616899B10C4A12F8010B8542BB
:106DC00002D00133082BF8D10133DBB20122D940C4
:106DD0002046FFF7B5FF2078BDE83840FFF7E5BE55
:106DE00020782946FFF754FDF5E738BD40B50D0082
:106DF00008B50078FFF754FDC0B208BD10B5094BC7
:106E0000094C022200201A60084B2060A080A0716B
:106E1000A360FFF7C5FD2046054A0649BDE81040BE
:106E200001F0DAB95CE6032050E603200000FFFF22
:106E3000D8E3032001410D002DE9F041931E8CB0F1
:106E4000222B4FF000030D4614468DF82C3027D925
:106E500000282ADA2E462D2306F8013B40420A2458
:106E60000DF12B074FF001082246014601A803F05F
:106E700079FC029B0198092BCCBF3722302252FAB1
:106E800083F307F8013908F101080028ECD14246E4
:106E9000791C304603F07AFC28460CB0BDE8F0813E
:106EA0000A2AD5D018B12E46DAE70A24FAE73023A9
:106EB0008DF82B302E460DF12A074FF00208E6E739
:106EC00010B504460068FFF7FFFD204610BD10B561
:106ED0000446006808B1FFF7F7FD0023C4E9013359
:106EE000236010BD38B504460D4600680131FFF738
:106EF000F3FD10B1C4E90005012038BD10B50368E9
:106F0000044623B143688B4201D3012010BD2046C3
:106F1000FFF7E8FF0028F9D0A368002BF5D122681D
:106F20001370F2E737B50D46114601920446FFF79C
:106F3000E5FF019A28B92046FFF7C9FF204603B0B4
:106F400030BDA2602946206803F020FC2268A368B7
:106F50000021D154F2E7002313B5C0E90033044601
:106F60008360037341B10846019103F075FC0199F8
:106F700002462046FFF7D6FF204602B010BD10B5EE
:106F80000446006808B1FFF783FB204610BD0000EF
:106F900010B5064C002320462360FFF771FB204606
:106FA000034A0449BDE8104001F016B960E6032029
:106FB000D8E303207F6F0D00F8B506460D468F1805
:106FC0000024BD420CD0336815F8011B9B68304685
:106FD0009847031E01DB1C44F3E7002C08BF1C4646
:106FE0002046F8BD13B50446084659B1019103F097
:106FF00033FC23680199DB680246204602B0BDE8F5
:107000001040184702B010BD08B5FFF7EBFF08BDF0
:1070100003689B68184738B50D210546FFF7F8FF50
:107020000A2104462846FFF7F3FF204438BD38B54F
:107030000546FFF7D7FF04462846FFF7ECFF20443C
:1070400038BD30B58BB000238DF82430012A98BFAD
:107050000A2209AC0D46B1FBF2F101FB125303F019
:10706000FF03092B94BF30333733DBB2AA4204F855
:10707000013DEFD92146FFF7B5FF0BB030BD000051
:107080002DE9F74F55EC104B06460F4610EE102A2F
:1070900010EE100A2B46294602F0AEFF40B15349CC
:1070A0003046FFF79FFF8246504603B0BDE8F08FA1
:1070B00025F000494E4B4FF0FF322046494602F082
:1070C0009BFF48B94A4B4FF0FF322046494602F039
:1070D00075FF08B94749E3E7474B4FF06042204648
:1070E000294602F07FFF08B14449D9E7444B4FF0ED
:1070F00060422046294602F057FF0028F4D10022C2
:1071000000232046294602F04FFFD0B12D21304602
:10711000FFF77EFF05F1004382461D463949DFF83F
:10712000EC904FF0000B00204FF000085FFA8BF35B
:107130009F4208D942464B4602F0EEFD0BF1010B8F
:10714000F4E78246EAE722462B4602F005FB0D46AD
:10715000044602F08FFF804602F03AFC02460B46DE
:107160002046294602F0F6FA0A2204460D46304629
:107170004146FFF766FF824427B123493046FFF7B7
:1071800031FF8244DFF884904FF00008013FFFB2E6
:10719000FF2F89D042464B462046294602F092FCFA
:1071A00004460D4602F03EFFB0F1000B1ADA2D2125
:1071B0003046FFF72DFFCBF1000103460A2230468F
:1071C0000193FFF73EFF019B18448244584602F0AA
:1071D0000FFC02460B462046294602F0BBFA044645
:1071E0000D46D3E759460023E8E700BF50B50D0030
:1071F000FFFFEF7F54B50D00FFFFEF4158B50D00C5
:10720000FFFFEFC10000E03FDAAA0D0000002440BC
:1072100038B5044610EE100ACDB202F0FBFB41EC8B
:10722000100B29462046BDE83840FFF729BF38B586
:10723000C9B20546FFF724FF04462846FFF7EBFED8
:10724000204438BD38B5044610EE100A0D4602F051
:10725000E1FB41EC100B29462046BDE83840FFF722
:10726000E6BF2DE9F04186B000AF05460E46381D59
:10727000142114463B60FFF73FFC13280ED8391D3C
:107280002846FFF7AFFE04461EB12846FFF7C3FEAF
:10729000044420461837BD46BDE8F08100F10803DC
:1072A00023F00703E846ADEB030D2246411C3B6883
:1072B0006846FFF721FC69462846FFF793FE04461F
:1072C000C546E1E7014B024A1A60704764E60320B5
:1072D0005CB50D00FAEE087AB4EEE70AF1EE10FAAA
:1072E00008B511D4F2EE0C7AB4EEE70AF1EE10FA1A
:1072F0000ADCDFED067A60EE277A17EE900A03F0DB
:1073000087F8034BC3E9000108BD00BF00006145D9
:1073100070E60320024B1A68024B1A60704700BFE8
:1073200068E3032068E603200021FFF741BB10B5A6
:107330008368044613B1032201469847204610BDD6
:1073400010B50446FFF7F3FF204610BD0348044A7A
:1073500004490023836000F03FBF00BF78E60320AC
:10736000D8E3032041730D00014B1860704700BF44
:1073700070E3032008B50B4B43B100F06BF90368D1
:107380001B699847002801DDAFF30080064B43B12D
:1073900000F0DEF903681B699847002801DDAFF3B0
:1073A000008008BD000000000000000008B5FFF7E5
:1073B000E1FFFFF75DF9014B186008BDD8E7032036
:1073C0000248034A0349121A03F0E0B900F403200B
:1073D00004F4032048B90D0007B5002300931A46B2
:1073E0006FF07701FFF7F6FA03B05DF804FB0000D9
:1073F00007B543880A2B08D0502B0BD1094B1B68CB
:107400004BB103B05DF804EB1847FFF7E5FF03B09D
:107410005DF804FB002300931A466FF07701FFF735
:10742000D9FAF4E78CE6032038B5124C1248134D14
:107430000021FFF771FB2368AB42114B0CBF012207
:1074400000221A7002D0FFF7BBFF2560FFF700F99A
:10745000044603F0CBF90B4B13B12046AFF3008089
:1074600000210848FFF720FBBDE83840064800210E
:10747000FFF7A6BA00F4032069730D001E1C279ABB
:1074800088E6032000000000F1730D00704710B57E
:107490001821044600F0A5FE204610BDF0B5037D7E
:1074A000062B8DB00E4600F104074FF0000412D0F9
:1074B00000F1080515F8011D0A223046FFF7C1FD4D
:1074C000AF42044419D0002CF4D02E213046FFF7EF
:1074D0009FFD0444EEE72F236A4639460A208DF8C3
:1074E0000040FFF7DDF8684603F0B6F9336802465E
:1074F000DB68694630469847044620460DB0F0BD2B
:1075000010B5054B0446112240F8043B002103F05E
:1075100065F9204610BD00BF84B50D000346074A3B
:1075200010B543F8042B01F1100251F8044B43F855
:10753000044B9142F9D10A781A7010BD84B50D0040
:10754000037D042B04D14068003818BF0120704728
:10755000062B07D143683BB983682BB9C3681BB9B5
:107560000069F1E7002070470120704710B59DF8D1
:10757000084044EA032343EA024242EA0161042349
:107580004160037510BD13B5CB7800938B784A78B2
:107590000978FFF7EBFF02B010BD417470477047E8
:1075A00008B50021007CFFF7D3F940EAE07008BD80
:1075B00008B50121007CFFF7CBF940EAE07008BD77
:1075C00008B5007CFFF7BCF920EAE07008BD08B5FB
:1075D000007CFFF7ADF920EAE07008BD13B5044662
:1075E000007C0191FFF7ACF90028019901DC607C77
:1075F00020B1207CFFF7B4F920EAE07002B010BDA2
:10760000007CFFF7B5B910B51421044600F0E9FD80
:10761000204610BD10B54FF47A7304460846002189
:10762000C4E90113044B23600123207463741146E1
:10763000FFF76EF9204610BD98B50D00007C0022C2
:10764000FFF76EB910B514220446002103F0C6F806
:10765000204610BD10B5104C88B003A8FFF7F2FF0C
:107660002178BFF35B8F11F0010111D12046019108
:10767000FCF722FD019958B103AA0848FFF7CAFF99
:107680002046FCF71EFD064A0649044800F0A4FD0A
:10769000024808B010BD00BF90E6032094E6032026
:1076A000D8E303209F750D0070474174704708B5FB
:1076B000007CFFF745F820EAE07008BD08B5007CC3
:1076C000FFF716F820EAE07008BD08B5007CFFF768
:1076D0001FF840EAE07008BD08B5007CFFF710F81D
:1076E00040EAE07008BD007CFFF71AB837B5457C6A
:1076F00004462DB1207C03B0BDE83040FEF7F0BF5A
:10770000007C0191FFF71CF800280199F2DC284663
:1077100003B030BD10B51421044600F062FD2046D0
:1077200010BD000010B54FF0000C0446084611468D
:107730004FF47A72C4E901C2044A22600122207423
:1077400062741A46FEF7C4FF204610BDC8B50D008E
:1077500013B50E4C2178BFF35B8F11F0010112D1EC
:1077600020460191FCF7A8FC019960B1084A094B39
:107770000948FFF7D7FF2046FCF7A3FC074A084952
:10778000054800F029FD044802B010BDA8E603201A
:10779000ACE6032030E70320B4E70320D8E303205E
:1077A000A9760D007047F8B5064615460C468F18A9
:1077B000BC4206D0336814F8011B9B6830469847DA
:1077C000F6E72846F8BD007C0022FEF7D9BF007C12
:1077D0000021FEF7DDBF007C0021FEF7E1BF007C49
:1077E0000021FEF7E5BF007C0021FEF7E9BF10B5E0
:1077F0001421044600F0F5FC204610BD10B54FF4EE
:107800007A73044608460021C4E90113034B236040
:1078100020741146FEF7E4FF204610BDF8B50D00B8
:107820000023007C1A461946FEF792BF7FB500225E
:107830001423CDE90122ADF804300B788DF808301F
:107840004B680393CB680493007C0B7A059301A9E2
:10785000FEF7CEFF07B05DF804FB1FB5003B8DF8C7
:1078600000104FF06401039118BF01236946019293
:107870008DF80830FFF7DAFF05B05DF804FB01234F
:10788000FFF7EBBF007C0022FEF76ABFC9B2FFF72B
:10789000F9BF007C0022FEF76BBF0121FFF7F9BFA3
:1078A00013B503688DF80710DC6B01224FF0FF332E
:1078B0000DF10701A04702B010BD10B40368DC6BE6
:1078C0004FF0FF33A4465DF8044B604713B51346F1
:1078D00002688DF80710D46B0DF107010122A04753
:1078E00002B010BD704738B543691A68002A0546D2
:1078F00010DAB3F88620B3F884309A420AD10368CC
:107900001B699847044628B92B682846DB6A9847C4
:10791000204638BD0120FCE743691868C043C00F0A
:1079200070477047064B994210B500F10C0405D022
:10793000084600F05BFC002808BF0024204610BD6C
:1079400048B50D0010B5AC21044600F04AFC2046B5
:1079500010BDFCF7A4BB2DE9F0414FF0000886B044
:107960001D46C0F8048004460E46174641461022C4
:1079700002A802F033FF6B1C09D04FF47A70B5FBFC
:10798000F0F3CDE9023800FB1353584304906069CB
:1079900010230093006802AB41F2050240F6FF712C
:1079A000FEF72EFF002807DAFFF7AEF803686360E2
:1079B000002006B0BDE8F0816069002300683A4607
:1079C0003146FEF73DFF031EEEDB1846F1E70000EF
:1079D00070B54D69054B04468C3544F8043B0646AA
:1079E0000FCD0FC42B682370304670BD84B50D00D9
:1079F00010B54369B3F88620B3F884309A42044640
:107A000005D06369B3F884201344187910BD036866
:107A10001B6998470028F4D14FF0FF30F6E710B506
:107A20004369B3F88620B3F884309A42044608D0FC
:107A30006369B3F88420511CA3F8841013441879A7
:107A400010BD03681B6998470028F1D14FF0FF3043
:107A5000F6E7F8B543691746B3F88620B3F88430E3
:107A60009A4205460E4616D06969B1F88430B1F8DD
:107A70008640E41ABC4228BF3C46043322461944DF
:107A8000304602F083FE6A69B2F884302344A2F8DB
:107A900084302046F8BD03681B6998470028E3D16D
:107AA0004FF0FF34F5E700002DE9F04398460368F6
:107AB00093B00D460024DB6A0646174698472846D1
:107AC0006B46224621460094FEF77AFD05460028C3
:107AD00063D1009B002B4BD05B69002B48D006A8DC
:107AE000FFF70EFD009B5C696378022B04D1211D1A
:107AF00006A8FFF748FD26E00A2B24D111222946CB
:107B000001A802F06BFEA368002B38D004F1080333
:107B10000DF1040C183418685968624603C2083322
:107B2000A3429446F7D1062301A90CA88DF814307E
:107B3000FFF7F4FC0DF1340CBCE80F0007AC0FC4E8
:107B4000DCF80030237006A8FFF7FAFC80B1336838
:107B500007ADD3F82090124B0C930FCD0DAC0FC492
:107B60002B6823703A4643460CA93046C847054661
:107B70000098FEF71DFD284613B0BDE8F083E368CA
:107B8000002BC3D14FF6FF70D4F81090FEF790FD94
:107B90008145BBD104F11401AAE72546E8E700BFFF
:107BA00084B50D0042690023A2F884304269A2F82E
:107BB000863070472DE9F0411F4603680C46DB6AAA
:107BC0008AB0054616469847237DD5F81480042BC5
:107BD0000CBF02200A2006220121FEF739FEC8F858
:107BE00000006B691B68002B08DA2B682846DB6AEB
:107BF0000024984720460AB0BDE8F0812846FFF7E8
:107C0000D1FFB7B1002303A9F8B20393ADF8103048
:107C1000FEF716FD0028E8D1686906230093006886
:107C200003AB41F20B0240F6FF71FEF7E9FD0028BD
:107C3000DBD11C22002103A802F0D0FD237D042B00
:107C40001DD14FF407733046ADF80C30FEF738FD08
:107C5000ADF80E006068FEF72BFD04906B691C22E6
:107C6000186803A9FEF7DCFD0028BED104340FCC50
:107C70006D698C350FC523682B700124BAE740F677
:107C80001C233046ADF80C30FEF71AFD05AEADF8FA
:107C90000E00231D04F1140718685968324603C208
:107CA0000833BB421646F7D1D8E7000030B5426929
:107CB000B2F886308BB004462BB1B2F884209A42D9
:107CC00001D1FFF76FFF61690868002818DBB1F880
:107CD00086507F2D14D804310823C5F18002294431
:107CE000FEF7A6FD002813DD6369B3F886200AB904
:107CF000A3F884206369B3F886201044A3F88600B3
:107D00006369B3F88600B3F88430C01A0BB030BD95
:107D1000FEF7FAFE03680B2BF2D0FEF7F5FE0368C0
:107D20000B2BEDD020230025CDE90235FEF7ECFE2C
:107D300003680193084B0949009302AA2B4632209D
:107D4000FEF726FE63691868FEF762FD63694FF06F
:107D5000FF321A60D4E700BF1FB60D0018B60D0041
:107D600010B5436904461868002801DBFEF750FD92
:107D700063694FF0FF321A606069112200218C3074
:107D800002F02CFD2046BDE81040FFF70BBF10B5F8
:107D9000002304460160C0F884308830FFF7B0FB50
:107DA000204610BD73B500234FF47A72C0E901324A
:107DB0000E4A0361026043610446AC200191FCF766
:107DC0006AF9051E05F10C0608D00123C5E9013347
:107DD000074B01992B603046FFF7D9FF2046C4E9D5
:107DE0000565FFF7DFFE02B070BD00BF54B60D00A1
:107DF00038B60D0010B54FF0FF310446FFF7D2FF43
:107E0000204610BD10B504460068002801DBFEF7CF
:107E1000FFFC204610BD0C30FFF7F4BF0022406885
:107E20001146FEF7F9BD002240681146FEF714BE68
:107E3000002240681146FEF71FBE40680022FEF790
:107E400013BE4068002281F00101FEF7FDBD002352
:107E500040681A461946FEF7EFBD002340681A46EF
:107E60001946FEF7E1BD002240681146FEF7C4BD89
:107E7000406800220221FEF7C7BD002340681A4671
:107E8000FEF7B2BD024B04225A60024A1A607047E4
:107E9000C8E70320A0B60D00002340681A46FEF78D
:107EA000A3BD406800220221FEF7AEBD002240685B
:107EB0001146FEF7A1BD002240681146FEF7ACBD99
:107EC000002340681A461946FEF7AEBD00234068FD
:107ED0001A461946FEF7B0BD4068002281F0010144
:107EE000FEF7B2BD40680022FEF7BEBD002240682A
:107EF0001146FEF7C1BD002240681146FEF7ACBD39
:107F00002DE9F043002495B016460D460746FFF7CD
:107F1000F7FA214618220EA8009402F05FFC4023D5
:107F2000CDE90C3421466B460CAA3046FEF748FBDF
:107F30000446002846D1024601216868FEF76CFD20
:107F40000221804622466868FEF766FD009E814653
:107F50002146002E36D0002934D17368022B03D07D
:107F60000A2B0BD0F669F4E7B8F1000F04D0716961
:107F700038460431FFF707FB4146F3E7B9F1000F3C
:107F800001D14946EEE77469102201A802F026FCEF
:107F900006238DF8143001AD04F108031834186875
:107FA00059682A4603C20833A3421546F7D101A9EE
:107FB00006A807ADFFF7B2FA0FCD3C1D0FC42B6822
:107FC0002370DEE70098FEF7F3FA384615B0BDE8F7
:107FD000F0830000024B034A1A6000225A60704787
:107FE000D0E70320D4B60D00232813B502D9002012
:107FF00002B010BDA0F10B03022B1AD8174C217848
:10800000BFF35B8F11F001010BD120460191FCF70A
:1080100053F8019928B11248FEF7CAFD2046FCF733
:1080200050F80F4B1878FEF74BFC0028DFD10120E9
:10803000DEE7012809D800F0A7F80021007CFEF750
:10804000C7FB80F00100C0B2D2E709380128EED8A2
:10805000FFF77EFB007CFEF76BFBF2E73CE60320BC
:1080600040E60320232838B504460D460AD8FF29E8
:1080700008D0FFF7B9FF28B129462046BDE83840AF
:10808000FEF7AEBA38BD38B504460D46FEF7B0FA75
:10809000FF2810D0062804D84D2323FA00F0C30788
:1080A00009D42046FFF7A0FF28B129462046BDE8A5
:1080B0003840FEF7A5BA38BD10B50446FEF798FA69
:1080C000031FDBB2012B08D92046FFF78DFF20B13B
:1080D0002046BDE81040FEF79BBA002010BD0D28D9
:1080E00010B504469CBF0E34A4B22046FFF77CFFB7
:1080F00050B103212046FEF76BFA032804D1204635
:10810000BDE81040FEF78CBA002010BD2DE9F0410B
:1081100090461F46002406460D46B8F1000F13D1C5
:1081200047FA04F101F001013046FFF7ACFF0121ED
:108130002846FFF7A8FF013400212846FFF7A3FFD8
:10814000082CEAD1BDE8F081C4F1070147FA01F13A
:10815000E8E7FEF76DBA000038B50023202543801C
:10816000142304460380856005610649284600F013
:108170003AF804496060284600F035F8E06020468F
:1081800038BD00BF00B70D0030B50F4D2978BFF3E3
:108190005B8F11F0010487B013D12846FBF78CFFE9
:1081A00078B101A8FFF7D8FF01AA21460748FFF7D9
:1081B00025FB2846FBF785FF054A0649034800F0E2
:1081C0000BF8024807B030BDDCE70320E0E70320EE
:1081D000D8E30320A5770D000B460146184602F0B0
:1081E000B3BAFBF75CBFFBF758BF0000014900F0D2
:1081F000F9B800BF1CB70D007FB500241023CDE9EE
:108200000234036800949E698DF8044015466B465D
:108210001268B0479DF8043003F00603062B03BF35
:10822000009B2B600120204604B070BD0098904256
:1082300014BF01200620704710B5034B03600446AD
:1082400000F0CDF8204610BD5CB70D0010B5044617
:10825000FFF7F2FF20460821FFF7C3FF204610BDBD
:108260002DE9F0411F46DDE90834DDF81880984516
:108270000646154607D1079900F0B4F818B16571A4
:108280000020BDE8F0813946304600F0ABF8002808
:10829000F6D00123C4F800802571A371F0E738B54A
:1082A00015461C4600F09EF820B10823E360062323
:1082B0002560237138BD73B505460C4601921E46F4
:1082C00000F090F850B9032E08D82368019A5B6932
:1082D0002946204602B0BDE87040184702B070BD84
:1082E00010B5034B03600446FFF7A6FF204610BD00
:1082F000BCB70D0010B50446FFF7F2FF20460C2175
:10830000FFF76FFF204610BDF7B5089F974205465F
:108310000E4614460AD0A86802680897156A3146C6
:108320002246AC4603B0BDE8F040604719460193D1
:1083300000F058F8019B0028EDD0062003B0F0BDF6
:108340002DE9F14F0D461946DDE90A4BDDE90CA692
:1083500081461746984600F045F890B1002D3460EC
:10836000377109DB61198A450CBF06210121B17102
:10837000002001B0BDE8F08F0235F9D10123B371BF
:10838000F6E7544506D15946484600F02BF808B1A7
:108390007771EDE7D9F808000368CDE90CA6CDE9BF
:1083A0000A4BDC693A4643462946A44601B0BDE87B
:1083B000F04F60472DE9F04107460C4615461E4632
:1083C000FFF76DFF48B9B86803689F692A463346CE
:1083D0002146BC46BDE8F0416047BDE8F0817047EA
:1083E00000207047814208B50ED0406803782A2BE0
:1083F0000CD049680B782A2B08BF013102F01AFA19
:10840000B0FA80F0400908BD0120FCE70020FAE73F
:108410002DE9F04F2DED028B8DB057EC106B55EC24
:10842000114B00F0ADF9AE4BB0EE408AF0EE608A31
:1084300093F90090B9F1FF3F37D022462B462046F2
:10844000294601F0D9FD834678BB32463B4630468B
:10845000394601F0D1FD8046002840F093804FF06E
:10846000000A4FF0000B3046394652465B4601F099
:1084700091FD18B352465B462046294601F08AFD1D
:108480000090002857D0974BCDF828800122CDE9E5
:108490000467CDE90645CDE908AB02920393B9F133
:1084A000000F00F089809FED8A8BB0EE480AF0EE55
:1084B000680A0DB0BDEC028BBDE8F08FB0EE480A43
:1084C000F0EE680A01F004F88046002800F082808F
:1084D0004FF000084FF0000951EC180B42464B4694
:1084E00001F058FD0028E0D047EC106B00F0F0FFE1
:1084F0000028DAD045EC104B00F0EAFF0028D4D079
:10850000774B784A93F90030039204210022022B22
:10851000CDE90467CDE90645CDE9088902910A92C3
:1085200004D002A800F0E0FF00284AD1FEF7ECFAE0
:108530002223036045E045EC104B00F0C9FF002802
:10854000B3D052465B462046294601F02DFD002857
:10855000ABD0634B0099634A93F900300A91012133
:10856000CDE90467CDE90645CDE90212002B6FD1B4
:10857000CDE908AB02A800F0B7FF00286ED00A9B37
:108580002BB320E0002200232046294601F002FD03
:1085900000288AD09FED4E8B524BCDF828B0012297
:1085A000B9F1020FCDE90467CDE906458DED088BE1
:1085B000029203933FF479AF02A800F095FF0028E0
:1085C00051D00A9B1BB1FEF79FFA0A9B03609DEDF9
:1085D000088B6AE747EC106B00F07AFF00283FF445
:1085E00077AF45EC104B00F073FF00283FF470AFFD
:1085F00053EC182B18EE100A194601F0FDFC384B0D
:10860000002840F0968093F900800A90032302939B
:10861000344B0393CDE90467CDE90645B8F1000F6B
:1086200026D1DFF8D0904FF0604852465B46304686
:108630003946CDE9088901F0B7FC48BB02A800F033
:1086400053FF00289BD1FEF75FFA2223036096E7D1
:1086500025490020022BCDE908018BD1FEF754FA01
:10866000212303608BE7FEF74FFA21230360A8E77D
:108670009FED197B52465B46304639468DED087BAF
:1086800001F092FC002837D1B8F1020FDBD0D5E71A
:10869000164B00222046294601F014FA02460B46EA
:1086A00043EC102BCDE9002300F02AFFDDE9002385
:1086B00051EC100B01F06EFC002836D10C4B084930
:1086C0004FF06042CDE9082391F90080DCE700BF5C
:1086D000000000000000F03F000000000000F07FFC
:1086E0006CE30320F8B70D000000F0FF0000E03F4E
:1086F000FFFFEFC7FFFFEF471C4B00222046294634
:1087000001F0E0F902460B4643EC102BCDE90023C3
:1087100000F0F6FEDDE9002351EC100B01F03AFC0D
:1087200018B9134B0022CDE90823124B93F90080AE
:10873000AAE793F90090104BCDF828800122CDE9EB
:108740000467CDE90645CDE90223B9F1000F3FF4F6
:108750000FAF52465B465046594601F0DDFAB9F17B
:10876000020FCDE908013FF479AF03E70000E03FD5
:108770000000F0FF6CE30320F8B70D0000000000DC
:108780002DE9F04F57EC116B2DED0A8B27F0004AC5
:108790005AEA060289B03DD055EC104B764925F0D7
:1087A0000048884510EE102AA9462CDC11EE103A3C
:1087B000BB463AD08A4526DC6F498A4521D0B9F1BB
:1087C000000F3DDB00210391002B55D16A4B9A45E8
:1087D00000F0A880694B9A4500F0B680BBF1804F4D
:1087E00000F00185664B9B4546D1B9F1000F43DB94
:1087F00045EC104B09B0BDEC0A8BBDE8F04F00F022
:1088000099BD002BDBD008F1404808F5801858EAE4
:1088100002030DD19FED547B8DED007B9DED000B90
:1088200009B0BDEC0A8BBDE8F08F0CB9C245C3DDC1
:10883000544809B0BDEC0A8BBDE8F04F00F058BEBB
:1088400051498A4500F38780A1F154718A450FDDB3
:108850004FEA2A51A1F2FF31142940F3CE84C1F12D
:10886000340123FA01F000FA01F1994200F0208569
:1088700000210391002BADD045EC104B069200F087
:108880001DFE069A8DED000B5ABBB8F1000F04D007
:108890003A4B29F040429A4223D1BBF1000F07DA4C
:1088A000DDE900233549002001F036FACDE9000169
:1088B000B9F1000FB2DA039B08F1404808F58018BF
:1088C00058EA030340F0BE84DDE900231046194650
:1088D00000F040FF02460B4601F01EFACDE9000110
:1088E0009CE7039A4FEAD973013B0693134335D0B3
:1088F000264B9A454EDD03F104739A45244B40F311
:10890000ED83984540F36B83BBF1000F40F36B831D
:1089100017A3D3E900231046194601F0D3F8CDE997
:1089200000017BE708F1404303F5801313433FF454
:1089300071AF174B984540F38883BBF1000FC0F22D
:108940005283CDE9006769E7BBF1000FC0F24184B3
:10895000CDE9004562E70221039135E722462B4627
:10896000B4E700BFAFF30080000000000000F03F5C
:108970009C7500883CE4377E0000F07F0000F03FEB
:108980000000E03FFCB70D00FFFF3F430000E04167
:10899000FFFFEF3FE44B09EA0303002B40F016848E
:1089A000DDE90001E14B002201F08CF8CDE9000186
:1089B000DDF804806FF034004FEA2853DC49C8F337
:1089C0001302A3F2FF3342F07F5818188A4207902F
:1089D00048F4401840F3E983D64B9A4240F33E8472
:1089E0009FEDBB7BB0EE47BAF0EE67BAB0EE47CA78
:1089F000F0EE67CA9FEDB87B013054EC173B07904F
:108A0000A8F580184FF00009DDE900AB44EC183BF5
:108A10001A4650462346414600F09CFE53EC182B64
:108A200004460D465046414600F096FE02460B466F
:108A30000020C14901F070F945EC1A4B41EC190BCB
:108A400051EC1A0B53EC192B01F03CF8C3464FEADA
:108A5000680848F0005808F5002303EB09050A46AA
:108A600000230146CDE900120093DDE900890024CE
:108A7000CDE904122B4622464046494601F022F831
:108A800002460B4651EC1A0B00F064FE41EC170B4A
:108A900053EC182B2046294655EC174B00F05AFE94
:108AA00002460B465046594600F054FE42464B469D
:108AB00001F008F802460B462046294600F04AFE1F
:108AC00053EC192B00F0FEFFDDE904AB04460D4624
:108AD00052465B465046594600F0F4FF80A3D3E966
:108AE000002345EC1A4B04460D4600F0EBFF7EA335
:108AF000D3E9002300F030FE22462B4600F0E2FFCF
:108B00007BA3D3E9002300F027FE22462B4600F08A
:108B1000D9FF79A3D3E9002300F01EFE22462B469D
:108B200000F0D0FF76A3D3E9002300F015FE224623
:108B30002B4600F0C7FF74A3D3E9002300F00CFE1E
:108B400022462B4604460D461046194600F0BAFF51
:108B500002460B462046294600F0B4FF4246044632
:108B60000D464B4650465946CDE904AB00F0F4FDA6
:108B700053EC1A2B00F0A6FF22462B4600F0ECFD2A
:108B8000424604460D464B464046494600F09AFF91
:108B900045EC194B694B002282468B4600F0DCFD08
:108BA00053EC192B00F0D8FD009C0D4622462B46B5
:108BB0004046494600F086FF604B804689460022C9
:108BC0002046294600F0C6FD52465B4600F0C2FD35
:108BD00002460B4651EC190B00F0BCFDDDE9042305
:108BE00000F070FF49EC188B2246804689462B46E0
:108BF00051EC1A0B00F066FF02460B464046494610
:108C000000F0AAFD82468B4652465B4651EC180B9B
:108C100000F0A2FD009C3EA3D3E9002320460D46B0
:108C200000F050FF53EC182B804689462046294619
:108C300000F090FD02460B465046594600F08AFD72
:108C400035A3D3E9002300F03DFF49EC198B34A391
:108C5000D3E90023804689462046294600F032FFAA
:108C600002460B464046494600F076FD53EC1C2B6D
:108C700000F072FD824607988B4600F0B9FE52461E
:108C8000804689465B4651EC190B00F065FD53ECBC
:108C90001B2B00F061FD42464B4600F05DFD009C41
:108CA00042464B4620460D4600F054FD53EC1B2B2C
:108CB00000F050FD53EC192B00F04CFD02460B4622
:108CC0005046594600F046FD82468B4638E000BFCC
:108CD0000000000000000000000000000000F03F65
:108CE000EF4E454A287ECA3F65DBC9934A86CD3F91
:108CF00001411DA96074D13F4D268F515555D53F77
:108D0000FFAB6FDBB66DDB3F033333333333E33F0E
:108D1000000000E009C7EE3FFD033ADC09C7EE3F63
:108D2000F5015B14E02F3EBE0000F07F00004043E1
:108D30008E98030079B60B000000F03F0000084059
:108D4000039B069A013B134340F078819FEDC47B5F
:108D5000B0EE479AF0EE679A0023CDE900670093E2
:108D6000DDE900893046424639464B4600F0F2FCC8
:108D700022462B4600F0A6FE32463B4606460F46EC
:108D80005046594600F09EFE02460B463046394694
:108D900000F0E2FC424682468B464B46204629467E
:108DA00000F090FE06460F463B4650465946324676
:108DB00000F0D2FCC44B994204460D46884640F36D
:108DC000178101F13F4303F5E003034340F02A829A
:108DD000A5A3D3E900235046594600F0BDFC324616
:108DE00041EC180B3B462046294600F0B3FC0246F6
:108DF0000B4651EC180B01F0F5F8002840F01282F8
:108E0000C8F30A534FF48012A3F2FE3342FA03F37D
:108E10004344AE49C3F30A52A2F2FF3241FA02FCC4
:108E2000C3F3130523EA0C01C2F1140445F48015C1
:108E3000B8F1000F0B4645FA04F103914FF0000022
:108E4000B8BF49420246B8BF03913046394600F0E8
:108E500081FC06460F463B4650465946324600F0D6
:108E60007BFC039B1B0500930D46002480A3D3E9E4
:108E700000232046294600F025FE324680468946DA
:108E80003B462046294600F065FC02460B4650460C
:108E9000594600F05FFC78A3D3E9002300F012FEEE
:108EA00077A3D3E9002306460F462046294600F063
:108EB00009FE02460B463046394600F04DFC064698
:108EC0000F4632463B464046494600F045FC424686
:108ED0004B4604460D4600F03DFC02460B4630462C
:108EE000394600F037FC224682468B462B46204608
:108EF000294600F0E7FD64A3D3E9002306460F46A8
:108F000000F0E0FD62A3D3E9002300F023FC324629
:108F10003B4600F0D7FD60A3D3E9002300F01CFC22
:108F200032463B4600F0CEFD5DA3D3E9002300F0BE
:108F300011FC32463B4600F0C5FD5BA3D3E900239C
:108F400000F00AFC32463B4600F0BCFD02460B46F0
:108F50002046294600F0FEFB06460F4632463B46B9
:108F60002046294600F0AEFD0022804689464FF09B
:108F700080433046394600F0EDFB02460B46404642
:108F8000494600F0C9FE524606460F465B4620465B
:108F9000294600F097FD52465B4600F0DDFB024695
:108FA0000B463046394600F0D5FB22462B4600F0F2
:108FB000D1FB02460B460020454900F0CBFB0B4697
:108FC00000991944B1F5801F0246C0F2698110462C
:108FD00053EC192B00F076FDCDE900011EE4BBF146
:108FE000000FFFF695AC9FED327B8DED007B15E415
:108FF000DFF8E4C021F00043634540F30B81354BBB
:109000000B4403430AD132463B4600F0A3FB5246D1
:109010005B4600F0DDFF00283FF4F2AE26A3D3E963
:10902000002351EC190B00F04DFD23A3D3E90023DD
:1090300000F048FDCDE90001FFF7F0BB9FED207B7C
:10904000B0EE479AF0EE679A86E6BBF1000FCADAF7
:1090500007F1004300960193FFF7E0BBAFF30080F8
:10906000000000000000F0BFFE822B654715973C12
:1090700000000000432EE63FEF39FAFE422EE63FA5
:10908000396CA80C615C20BED0A4BE726937663E04
:10909000F16BD2C541BDBB3E2CDE25AF6A56113FF8
:1090A00093BDBE166CC1663F3E5555555555C53FDF
:1090B000000000000000000059F3F8C21F6EA50177
:1090C000000000000000F03FFFFF8F40FFFF0F0097
:1090D0000000F03F00346F3FFFCB90409845FFF613
:1090E0007EAF914B98453FF70FAC8F4B0022DDE9E7
:1090F000000100F02FFB78A3D3E9002304460D46BE
:1091000000F0E0FC76A3D3E9002382468B4620469C
:10911000294600F0D7FC854B804689460022204630
:10912000294600F0CFFC02460B466FA1D1E90001B1
:1091300000F010FB22462B4600F0C4FC02460B4612
:1091400000207B4900F006FB22462B4604460D46D4
:109150001046194600F0B6FC02460B46204629464A
:1091600000F0B0FC62A3D3E9002300F0ABFC0246A0
:109170000B464046494600F0EDFA80468946504687
:10918000594642464B4600F0E7FA002452465B46F9
:1091900020460D4600F0DEFA02460B4640464946A0
:1091A00000F0D8FA82468B46CAE59FED537BB0EEBD
:1091B00047BAF0EE67BAB0EE47CAF0EE67CA9FED65
:1091C000507B4FF0000954EC173B1DE40020FFF7E3
:1091D000F3BB554922462B46002000F09DFDCDE90A
:1091E0000001FFF71BBB22462B462046294600F014
:1091F00069FCCDE90001FFF711BB002B42D1C1F1A1
:1092000014014AFA01F000FA01F151455AD00393D2
:10921000FFF7E0BA464A93425BDCDDE900120091B9
:10922000039122E638A3D3E9002351EC190B00F097
:1092300049FC35A3D3E9002300F044FCCDE900014B
:10924000FFF7ECBA039B012B7FF4E8AADDE90021CC
:1092500001F10043CDE90023FFF7E0BA9FED2C7B3D
:10926000B0EE47BAF0EE67BA9FED2B7BB0EE47CA7F
:10927000F0EE67CA9FED2A7B4FF4802954EC173B30
:10928000FFF7C2BB45EC104B039200F017F9039AAD
:109290008DED000B002A7FF461AB0392FFF7F5BA66
:1092A000039843EC102B00F0BFF951EC100B8FE644
:1092B00000F00100C0F102010391002B3FF48AAAE3
:1092C000FFF7DABA00F00100C0F102030393FFF7E1
:1092D00081BA1B1596E500BF000000604715F73FF7
:1092E00044DF5DF80BAE543E555555555555D53FA9
:1092F000FE822B654715F73F0000000000000000CC
:10930000000000000000F03F9C7500883CE4377EC0
:109310000000004003B8E23F06D0CF43EBFD4C3ED7
:10932000000000000000F83F0000F03F0000D03FC8
:109330000000E03F2DE9F0415F4A57EC106BBA4363
:1093400000F09880002F10EE104A3B464EDD391594
:109350005BD0C3F31303CA0743F48013A1F2FF3EAB
:1093600003D45B0003EBD4736400E20F4FF0000CF6
:1093700002EB43034FEA6E0E6400664616254FF477
:109380000012B118994202DC5B1A8E1894445B00FB
:10939000013D03EBD4734FEA52024FEA4404F0D18B
:1093A0002F4620204FF0004209E03ED0E10F013867
:1093B0004FEA520201EB43034FEA44043ED0B3426A
:1093C00002EB0501F1DD002901EB020509DBB046E6
:1093D0009B1BA14288BF03F1FF33641A1744464622
:1093E000E4E7002DF3DB06F10108F1E727F0004286
:1093F000324336D0002F4DD13946E20A1539640583
:109400001346002AF9D0D70251D400205B00DE02B7
:10941000054600F10100F9D51A4623468440C0F103
:109420002000C3401343491B93E7A142BED8002943
:1094300001EB0205D5DB98460023CEE7234312D18A
:1094400078084FEA6C0101F17F511CF0010F01F522
:10945000001118BF40F0004001EB0E53024643ECF0
:10946000102BBDE8F0817B1C16BF781C0CF1010CA1
:109470004008E6E710EE102A10EE100A3B46394687
:1094800000F020FB32463B4600F066F941EC100B41
:10949000BDE8F08110EE102A3046394600F05AF946
:1094A00002460B4600F038FC41EC100BD9E723468E
:1094B00020204FF0FF35B4E70000F07F51EC100B97
:1094C00010EE102A21F0004343EC102B704700BF30
:1094D00082B08DED000B019840F0004000F5801047
:1094E000C00F02B0704700BF0020704700000000AE
:1094F0009FED010B704700BF000000000000F87FE7
:10950000F0B553EC102BC3F30A56A6F2FF30132824
:1095100010EE105A83B019464FEAD37431DC00289C
:109520004CDB3E4E064103EA060717432ED003EA02
:1095300056031D434FEA56060CD04FF480231328E0
:1095400021EA060643FA00F141EA06010CBF4FF09A
:1095500000450025324800EBC4042A46D4E9004502
:109560000B462046294600F0F7F8CDE90001DDE979
:10957000000122462B4600F0EDF841EC100B03B041
:10958000F0BD332806DDB0F5806F40D043EC102BE2
:1095900003B0F0BDA6F213464FF0FF30F040024298
:1095A000F4D015EA50024FEA5003D3D04FF0804276
:1095B00025EA030542FA06F63543CBE723F00040DF
:1095C0001043E3D0C3F3130010434542054314484E
:1095D00000EBC400D0E90067590C2D0B490405F4D9
:1095E000002545EA01033046394600F0B5F8CDE9DB
:1095F00000013B46DDE90001324600F0ABF821F006
:10960000004343EAC47141EC100B03B0F0BD10EE0F
:10961000100A00F0A1F841EC100BB9E7FFFF0F00B2
:1096200000B80D000000000038B553EC102BC3F358
:109630000A511C46054681BB10EE101A23F0004467
:10964000214329D0194600223D4B3E4C10EE100A12
:1096500000F038FAA54202460B4616DB0C46C1F371
:109660000A513639294440F2FE70814221DC00293A
:1096700047DC11F1350F34DA4CF250318D4218DCF1
:10968000002B27A1D1E9000144DB25A3D3E9002366
:1096900000F018FA41EC100B38BD40F2FF70814227
:1096A000E0D110EE100A194600F056F841EC100B0C
:1096B00038BD002B1CA1D1E9000107DB1AA3D3E9B7
:1096C000002300F0FFF941EC100B38BD18A1D1E9DF
:1096D000000115A3D3E9002300F0F4F941EC100BCD
:1096E000F3E724F0FF4424F4E004363144EA015364
:1096F000104619460022144B00F0E4F941EC100B1F
:1097000038BD24F0FF4424F4E00444EA015343EC60
:10971000102B38BD08A1D1E90001B6E7AFF30080F6
:1097200059F3F8C21F6EA5019C7500883CE4377E92
:109730009C7500883CE437FE59F3F8C21F6EA58182
:1097400000005043B03CFFFF0000903C81F000411E
:1097500002E000BF83F0004330B54FEA41044FEA16
:10976000430594EA050F08BF90EA020F1FBF54EAB1
:10977000000C55EA020C7FEA645C7FEA655C00F04D
:10978000E2804FEA5454D4EB5555B8BF6D420CDD1E
:109790002C4480EA020281EA030382EA000083EAA1
:1097A000010180EA020281EA0303362D88BF30BD41
:1097B00011F0004F4FEA01314FF4801C4CEA113197
:1097C00002D0404261EB410113F0004F4FEA0333F6
:1097D0004CEA133302D0524263EB430394EA050F81
:1097E00000F0A780A4F10104D5F1200E0DDB02FAF0
:1097F0000EFC22FA05F2801841F1000103FA0EF284
:10980000801843FA05F359410EE0A5F120050EF149
:10981000200E012A03FA0EFC28BF4CF0020C43FA7A
:1098200005F3C01851EBE37101F0004507D54FF087
:10983000000EDCF1000C7EEB00006EEB0101B1F5D7
:10984000801F1BD3B1F5001F0CD349085FEA30001D
:109850004FEA3C0C04F101044FEA445212F5800F28
:1098600080F09A80BCF1004F08BF5FEA500C50F1C5
:10987000000041EB045141EA050130BD5FEA4C0CA8
:10988000404141EB0101013C28BFB1F5801FE9D205
:1098900091F0000F04BF01460020B1FA81F308BF28
:1098A0002033A3F10B03B3F120020CDA0C3208DDF4
:1098B00002F1140CC2F10C0201FA0CF021FA02F1CF
:1098C0000CE002F11402D8BFC2F1200C01FA02F13F
:1098D00020FA0CFCDCBF41EA0C019040E41AA2BF64
:1098E00001EB0451294330BD6FEA04041F3C1CDA2C
:1098F0000C340EDC04F11404C4F1200220FA04F04C
:1099000001FA02F340EA030021FA04F345EA0301F5
:1099100030BDC4F10C04C4F1200220FA02F001FAB7
:1099200004F340EA0300294630BD21FA04F0294639
:1099300030BD94F0000F83F4801306BF81F48011D2
:109940000134013D4EE77FEA645C18BF7FEA655C45
:1099500029D094EA050F08BF90EA020F05D054EA17
:10996000000C04BF1946104630BD91EA030F1EBF1C
:109970000021002030BD5FEA545C05D14000494120
:1099800028BF41F0004130BD14F580043CBF01F513
:10999000801130BD01F0004545F0FE4141F47001F9
:1099A0004FF0000030BD7FEA645C1ABF19461046D4
:1099B0007FEA655C1CBF0B46024650EA013406BFD5
:1099C00052EA033591EA030F41F4002130BD00BF94
:1099D00090F0000F04BF0021704730B54FF4806451
:1099E00004F132044FF000054FF0000150E700BFD2
:1099F00090F0000F04BF0021704730B54FF4806431
:109A000004F1320410F0004548BF40424FF000011D
:109A10003EE700BF42004FEAE2014FEA31014FEA60
:109A200002701FBF12F07F4393F07F4F81F06051AF
:109A3000704732F07F4208BF704793F07F4F04BFFA
:109A400041F40021704730B54FF4607401F00045D7
:109A500021F000411CE700BF50EA010208BF704737
:109A600030B54FF000050AE050EA010208BF704728
:109A700030B511F0004502D5404261EB41014FF491
:109A8000806404F132045FEA915C3FF4D8AE4FF099
:109A900003025FEADC0C18BF03325FEADC0C18BF7C
:109AA000033202EBDC02C2F1200300FA03FC20FACD
:109AB00002F001FA03FE40EA0E0021FA02F114441A
:109AC000BDE600BF70B54FF0FF0C4CF4E06C1CEA33
:109AD00011541DBF1CEA135594EA0C0F95EA0C0FA4
